:020000040800F2
:100000000020001039300008A52E0008A72E000897
:10001000A92E0008AB2E0008AD2E0008000000003D
:10002000000000000000000000000000AF2E0008EB
:10003000B12E000800000000B32E0008B52E000805
:10004000A9300008AD300008B1300008B530000814
:10005000B9300008BD300008C1300008C5300008C4
:10006000C9300008CD300008D1300008D530000874
:10007000D9300008DD300008E1300008E530000824
:10008000E9300008ED300008F1300008F5300008D4
:10009000F9300008FD300008013100080531000882
:1000A000093100080D310008113100081531000830
:1000B000193100081D3100082131000825310008E0
:1000C000293100082D310008313100083531000890
:1000D00039310008D52E00083D31000841310008B3
:1000E00045310008493100084D3100085131000800
:1000F00055310008593100085D31000861310008B0
:1001000065310008693100086D310008713100085F
:1001100075310008793100087D310008813100080F
:1001200085310008893100088D31000891310008BF
:1001300095310008993100089D310008A13100086F
:10014000A5310008A9310008AD310008B13100081F
:10015000BD2E0008B5310008C92E0008B9310008CD
:10016000BD310008C1310008C5310008C93100089F
:10017000CD310008D1310008D53100080000000061
:10018000D9310008DD310008E1310008E53100080F
:10019000E9310008ED310008F1310008F5310008BF
:1001A000F9310008FD3100080132000810B50320C4
:1001B000DFF84419086100F049FD002000F07EFDE1
:1001C000012000F07BFD00F040F8DFF83009DFF897
:1001D000301901605FF4E13141600021816000214C
:1001E000C16000210161002181610C214161002178
:1001F000C16100F0D7FD002801D000F0A2F8002076
:1002000000F0B7FD01242000C0B2012806D01AD3A7
:10021000032810D006D3042811D014E000F094F97C
:100220000400F0E7DFF8940910F11901183000F02C
:10023000A3F80400E7E700F0E1F80400E3E700F0CA
:10024000BDF90400DFE7002010BD80B592B00020AA
:100250000090DFF86C09016851F08051016000687E
:1002600010F080500090009800200090DFF85409B2
:10027000016851F440410160006810F44040009072
:100280000098012006905FF48030079002200C90C7
:100290005FF480000D9008200E904FF4B4700F9022
:1002A000022010900720119006A801F0B1F9002853
:1002B00001D000F046F801F06BFB0F200190022006
:1002C0000290002003904FF4A05004904FF480500F
:1002D0000590052101A801F099FB002801D000F04C
:1002E00030F813B000BD10B504000120DFF8D818B5
:1002F0000870002000F02BFD10BD10B50400012097
:10030000DFF8C4180870002000F021FD10BD10B502
:100310000400002000F01BFD10BD10B4030010000D
:10032000421EC0B2002809D018780C78A04202D032
:100330001000C0B203E05B1C491CF0E7002010BCB9
:10034000704780B5012000F002FDFEE738B50400DB
:100350000D002A0092B22100DFF8A00700F0A8FDEE
:10036000002801D0FFF7EDFFDFF85C0801780129D4
:10037000FAD10021017031BD2DE9F04104000D00DA
:100380000026DFF8487802213800FFF7DFFF02215E
:10039000380000F08BF8002803D0DFF8340800782C
:1003A0002AE03878207078782870207800280DD1DD
:1003B000207807280ADBDFF81C08002101700021E3
:1003C0004170022100F0A9F8022015E020780128F0
:1003D00002D15FF0040801E05FF003080221380059
:1003E00000F056F80121200000F097F801212800C4
:1003F00000F093F84046C0B2BDE8F08138B5DFF8B0
:10040000CC47DFF8B857697E89B22000FFF79EFF1E
:100410000422DFF8C4172000FFF77FFF002801D176
:1004200000202876287E012809D024D3032810D064
:100430000AD3052817D011D3062817D01BE00220B5
:10044000DFF89817086118E02078A8602078E86045
:1004500013E020682860606868600EE0206828600B
:100460006068686009E02068A86006E0206828608D
:100470006068686001E0022009E0697E89B22000BE
:1004800000F04BF8697E200000F002F8042032BD35
:1004900010B400221300DBB28B4205D200231400FB
:1004A000E4B20355521CF5E710BC704710B40200CB
:1004B000107830282EDB002318000C00C0B2E4B204
:1004C000A04227D21800C0B2105C30280CDB180004
:1004D000C0B2105C3A2807DA1800C0B2105C30389D
:1004E0001C00E4B2105513E01800C0B2105C4028A4
:1004F0000CDB1800C0B2105C482807DA1800C0B244
:10050000105C31381C00E4B2105501E0012002E01B
:100510005B1CD1E7002010BC704738B504000D000B
:100520002A0092B22100DFF8D40500F076FC002802
:1005300001D0012007E0DFF8900601780129FAD107
:1005400000210170002032BD10B5DFF88046042183
:100550002000FFF79DFF04212000FFF7F7FE032294
:1005600015A12000FFF7D9FE0028EED104212000BC
:10057000FFF78EFF1021DFF868060068FFF7CDFF58
:10058000002813D102212000FFF7E0FE0222B6A1CD
:100590002000FFF7C2FE002808D003212000FFF74B
:1005A00077FFC82001F044FB012004E00321200074
:1005B000FFF76EFF022010BD434F4D002DE9F84FAD
:1005C000DFF8F845207E01280DD0C0F046810328D1
:1005D00027D017D3052800F0EB80C0F0A4800628B0
:1005E00000F0E78039E1022000F040F9DFF8F4156F
:1005F000C8610221C1A0FFF790FF0220DFF8E815D3
:1006000008702AE1A06800F05CF9DFF8D815C8612D
:100610000221BBA0FFF781FF0220DFF8CC15087094
:100620001BE100260027DFF8A48502214046FFF7E2
:100630008DFE02224146C4A0FFF76FFE002088F81D
:100640000000002088F80100206800F081F9A06017
:10065000606800F07DF9E060E168A068091A491C53
:10066000DFF89404C160E068401C00F04BFA05001C
:10067000A06800F047FA2D1A4FF4806001F0ECFA00
:100680008246A06800F03EFA8346E068401C00F015
:1006900039FA00900098834527D20026584600F08A
:1006A00028FAC9F8000099F803000AF8060099F83A
:1006B00002000AEB0601487099F801000AEB0601F6
:1006C000887099F800000AEB0601C8701BF1040B52
:1006D000361D3700B7F5806FDCD34FF4806150468C
:1006E000FFF71BFF00200700D4E7390089B250460E
:1006F000FFF713FF042195A0FFF70FFF02214046EB
:10070000FFF724FE022241467DA0FFF706FE0028E7
:1007100003D16168206800F0F5F8022152A0FFF7CC
:10072000FCFE02209EE060682568451B2D1D40F2FE
:100730000140854204D2280001F08EFA060004E050
:100740004FF4806001F088FA060027685FF0000827
:10075000E9466068401C874224D2380000F0C9F99D
:10076000009099F8000006F8080099F8010006EBDF
:100770000801487099F8020006EB0801887099F8A2
:10078000030006EB0801C8703F1D18F10408B8F516
:10079000806FDED1002080464FF480613000FFF78B
:1007A000BCFED6E7414689B23000FFF7B6FE54E002
:1007B00053E0A06800F07EF90500280001F04CFA33
:1007C00006004FF480613000FFF7C0FD0027A068ED
:1007D00000F098F9804601F029FBA068401C00F069
:1007E00091F9804534D206EB0700D0E900010029D9
:1007F00001D1002801D0012200E00022D2B2002362
:100800004146032001F0C8FA00280AD0DFF8D4934B
:1008100001F024FBC9F81C00042119F11C00FFF7AA
:100820007CFE18F108080837B7F5806FD5D3002093
:10083000070001F00CFB4FF480613000FFF786FDEC
:100840000421DFF8A803FFF768FE01F0EFFAC4E720
:1008500001F0FDFA300001F0B5FBDFF88C03022156
:1008600001700078BDE8F28F4F4B000038B50400EE
:10087000DFF88452012028602000C0B2012802D095
:10088000022803D005E00120686006E002206860CD
:1008900003E0FF20DFF84C13C86101F0C7FADFF86E
:1008A0005013280001F090FB002804D001F0D6FA84
:1008B000DFF83013C86101F0CAFADFF82803C06915
:1008C00032BD38B504008C4D00202860AC6001209A
:1008D000E86001F0ABFADFF81813280001F074FBB0
:1008E000002804D001F0BAFADFF8F812C86101F06C
:1008F000AEFADFF8F002C06932BD000043410000EB
:1009000043530000F8B504000D00280000F020F863
:100910000600794F200000F01BF8361A761CFE60A6
:1009200001F084FADFF8C812380001F04DFB00280E
:1009300004D001F093FADFF8AC12C86101F087FA35
:10094000DFF8A002C069F2BD53540000454F4600D5
:1009500001000022DFF89C02814204D2B1F1006F55
:1009600001D30020A5E0DFF89032994203D2814202
:1009700001D301209DE0DFF88402814203D2994235
:1009800001D3022095E0DFF87832994203D2814208
:1009900001D303208DE0DFF86C02814203D299423B
:1009A00001D3042085E0DFF86032994203D281420E
:1009B00001D305207DE0DFF85402814203D2994241
:1009C00001D3062075E0DFF84832994203D2814214
:1009D00001D307206DE0DFF83C02814203D2994247
:1009E00001D3082065E0DFF83032994203D281421A
:1009F00001D309205DE0DFF82402814203D299424D
:100A000001D30A2055E0B1F1016F03D2814201D335
:100A10000B204EE08248814204D2B1F1016F01D334
:100A20000C2046E07F4B994203D2814201D30D2036
:100A30003FE07D48814203D2994201D30E2038E045
:100A40007A4B994203D2814201D30F2031E078489A
:100A5000814203D2994201D310202AE0754B99427A
:100A600003D2814201D3112023E07348814203D293
:100A7000994201D312201CE0704B994203D281426B
:100A800001D3132015E06E48814203D2994201D36D
:100A900014200EE06B4B994203D2814201D3152002
:100AA00007E06948814203D2994201D3162000E051
:100AB000172070470100002200290DD001290BD01A
:100AC000022909D0032907D00C2905D00D2903D00C
:100AD0000E2901D00F2902D14FF4804008E00429EB
:100AE00001D0102902D15FF4803001E05FF40030C2
:100AF000704700687047000030020020F4000020BA
:100B0000001001400100002923D0022926D023D360
:100B1000042927D024D3062928D025D3082929D071
:100B200026D30A292AD027D30C292BD028D30E2943
:100B30002DD02AD310292ED02BD312292FD02CD34D
:100B4000142930D02DD3162931D02ED3172930D0E7
:100B500031E05FF000602FE026482DE026482BE0D2
:100B6000264829E0264827E0264825E0264823E0B5
:100B7000264821E026481FE026481DE026481BE0C5
:100B8000264819E05FF0016016E0254814E025488A
:100B900012E0254810E025480EE025480CE02548E5
:100BA0000AE0254808E0254806E0254804E02548F5
:100BB00002E0254800E000207047000014020020F9
:100BC00040380240007000405A02002074010020AA
:100BD000580200203401002084300008B4010020B5
:100BE00000000020D4010020590200208C300008B1
:100BF0004C020020004000080080000800C00008EF
:100C000000000108000002080000040800000608B7
:100C10000000080800000A0800000C0800000E0888
:100C2000004010080080100800C0100800001108E3
:100C30000000120800001408000016080000180840
:100C400000001A0800001C0800001E0880B50B48B0
:100C5000016851F400710160016851F48061016024
:100C6000016851F480710160032001F001FB0F2045
:100C700001F036FB00F004F8002002BD003C024009
:100C8000704730B4002513E050F8042BD30744BF5D
:100C9000A9F101039A18091F042942F8045BFAD24A
:100CA00013468C0744BF15809B1CC90748BF1D70A5
:100CB00050F8041B0029E7D130BC704770B586B0EE
:100CC00004002000C0B200280DD100200090DFF801
:100CD000C800016851F040010160006810F0400058
:100CE0000090009810E02000C0B201280CD1002034
:100CF0000090DFF8A400016851F040010160006835
:100D000010F0400000900098DFF890502000C0B232
:100D100035F810000190012002900120039002207C
:100D20000490DFF87C6001A92000C0B256F82000D2
:100D300001F0FCFA00222000C0B235F810102000AB
:100D4000C0B256F8200001F006FC06B070BD10B528
:100D500004000122DFF844002100C9B230F811106C
:100D6000DFF83C002300DBB250F8230001F0F3FB76
:100D700010BD10B504000022DFF820002100C9B228
:100D800030F81110DFF818002300DBB250F8230010
:100D900001F0E1FB10BD000030380240A430000833
:100DA0002000002010B50400002C01D1012033E008
:100DB000A0690028FFD194F83900002805D100204F
:100DC00084F83800200001F0F3FB242084F8390077
:100DD0002068C06830F400502168C860200000F02E
:100DE0009FFA2068006930F490402168086120680B
:100DF000406930F02A00216848612068C06850F4DA
:100E000000502168C8600020E063202084F8390089
:100E1000202084F83A00002010BD73B504001500AE
:100E200094F83900202841D10198002803D02800E7
:100E300080B2002801D1012039E094F8380001285F
:100E400001D1022033E0012084F8380001982062AB
:100E5000A584E5840020E063212084F839000FF2A6
:100E60005120216BC8630FF27D20216B08640FF2C3
:100E7000D920216BC8640020216B086501AE2B00CE
:100E80009BB22068021D3168206B01F0BAFC7FF034
:100E9000400021680860002084F83800206840691C
:100EA00050F0800021684861002000E0022076BDFB
:100EB00073B50400150094F83A00202851D1019828
:100EC000002803D0280080B2002801D1012049E089
:100ED00094F83800012801D1022043E0012084F871
:100EE00038000198A062A5850020E063222084F8E4
:100EF0003A000FF20120616BC8630FF23D20616B75
:100F000008640FF24520616BC8640020616B0865BE
:100F100001AE2B009BB232682068011D606B01F0AE
:100F200070FC0020009020680068009020684068F5
:100F300000900098002084F838002068C06850F4C1
:100F400080702168C8602068406950F00100216805
:100F500048612068406950F04000216848610020E5
:100F600000E0022076BD2DE9F843060030680768EE
:100F70003068D0F80C803068D0F81490002000253C
:100F800017F00F04002C08D1B80606D55FEA886078
:100F900003D5300000F073F988E0002C74D05FEACC
:100FA000C97002D418F4907F6ED017F00100C0B25F
:100FB000002806D05FEAC85003D5F06B50F001005E
:100FC000F063780708D519F00100C0B2002803D0FB
:100FD000F06B50F00200F063B80708D519F001007B
:100FE000C0B2002803D0F06B50F00400F063380763
:100FF00008D519F00100C0B2002803D0F06B50F002
:101000000800F063F06B00283DD0B80605D55FEA14
:10101000886002D5300000F032F9306840698009FC
:1010200010F001000500F06B000701D4002D25D061
:10103000300000F0BFF83068406940061AD53068CB
:10104000406930F0400031684861706B00280DD075
:101050000FF28510716B0865706B01F01EFC0028A3
:1010600011D0706B716B096D88470CE03000FFF791
:101070004EF908E03000FFF74AF904E03000FFF7CE
:1010800046F90020F06311E0380606D55FEA0860F3
:1010900003D5300000F0ACF808E0780606D55FEA2A
:1010A000486003D5300000F0DAF8FFE7BDE8F183CF
:1010B00038B50400A56B20680068C0050ED4002078
:1010C000E8842868406930F0800029684861286811
:1010D000C06850F040002968C86002E02800FFF7AF
:1010E00002F931BD38B50400A56B280001F072FD8E
:1010F00031BD000038B50400A56B20680068C0054C
:1011000016D40020E8852868C06830F4807029680B
:10111000C86028684069400840002968486128681C
:10112000406930F0400029684861202085F83A0085
:101130002800FFF7E2F831BD38B50400A56B2800A0
:1011400001F049FD31BD0000F8B506000020B76B85
:1011500039684C69E40914F0010497F83910212921
:1011600006D1002C04D00020F884380000F018F8D4
:1011700038684569AD0915F0010597F83A0022284D
:1011800006D1002D04D00020F885380000F012F8B8
:10119000F86B50F01000F8633800FFF7B8F8F1BDB5
:1011A0000168C96831F0C0010268D160202180F86F
:1011B000391070470168C96831F490710268D160D4
:1011C000016849694908490002685161202180F895
:1011D0003A1070470000000038B50400A56B0020ED
:1011E000E8850020E8842800FFF791F831BD000071
:1011F000010091F8390021282FD18868B0F5805F6F
:1012000011D1086A02001088C005C00D0B68586033
:101210000869002803D1086A801C086209E0086A8E
:10122000401C086205E0086A431C0B6200780B68EA
:101230005860C88C401EC88480B200280BD1086852
:10124000C06830F080000B68D8600868C06850F053
:1012500040000B68D860002000E00220704710B505
:1012600004002068C06830F040002168C860202079
:1012700084F839002000FFF736F8002010BD38B59B
:10128000040094F83A00222848D1A068B0F5805FA5
:1012900016D1A06A05002069002808D1206840689E
:1012A000C005C00D2880A06A801CA0621AE02068DA
:1012B000406800F0FF002880A06A401CA06211E096
:1012C0002069002806D1A06A411CA16221684968F2
:1012D000017007E0A06A411CA1622168496811F011
:1012E0007F010170E08D401EE08580B2002813D19F
:1012F0002068C06830F490702168C8602068406938
:101300004008400021684861202084F83A0020000D
:10131000FEF7F3FF002002E0002000E0022032BDD3
:101320002DE9F843050000212868026932F4405293
:10133000E8680243286802612868C368B14803402E
:10134000AC682869044368690443E869044323439B
:101350002868C3602868446934F44074A869044369
:1013600028684461E869B0F5004F40F0A68028681D
:10137000A549884203D02868A44988424ED100F08C
:10138000F2FB060000F0EFFB070000F0ECFB8046EC
:1013900000F0E9FB814600F0E6FB64211922564388
:1013A0006B685B00B6FBF3F36426B3FBF6F35743BD
:1013B0006E687600B7FBF6F602FB08F86F687F00F0
:1013C000B8FBF7F75FF0640CB7FBFCF701FB17669F
:1013D000F60032366427B6FBF7F6760016F4F87698
:1013E00016EB031602FB09F96B685B00B9FBF3F31C
:1013F00002FB00F268684000B2FBF0F06422B0FB30
:10140000F2F001FB1031C80032306421B0FBF1F082
:1014100010F00700861928688660F1E000F098FB5C
:10142000060000F095FB070000F092FB804600F0FC
:101430008FFB814600F08CFB6421192256436B68B8
:101440005B00B6FBF3F36426B3FBF6F357436E6819
:101450007600B7FBF6F602FB08F86F687F00B8FB72
:10146000F7F75FF0640CB7FBFCF701FB1766F600BB
:1014700032366427B6FBF7F6760016F4F87616EBEC
:10148000031602FB09F96B685B00B9FBF3F302FB7F
:1014900000F268684000B2FBF0F06422B0FBF2F0AA
:1014A00001FB1031C80032306421B0FBF1F010F0C4
:1014B0000700861928688660A2E028685249884299
:1014C00003D02868514988424DD100F04CFB0600FA
:1014D00000F049FB070000F046FB804600F043FBAC
:1014E000814600F040FB6421192256436B689B0043
:1014F000B6FBF3F36426B3FBF6F357436E68B6000E
:10150000B7FBF6F602FB08F86F68BF00B8FBF7F709
:101510005FF0640CB7FBFCF701FB1766360132364F
:101520006427B6FBF7F616F0F00616EB031602FB7F
:1015300009F96B689B00B9FBF3F302FB00F26868E2
:101540008000B2FBF0F06422B0FBF2F001FB10313E
:10155000080132306421B0FBF1F010F00F00861961
:10156000286886604CE000F0F3FA060000F0F0FA1C
:10157000070000F0EDFA804600F0EAFA814600F03C
:10158000E7FA6421192256436B689B00B6FBF3F31C
:101590006426B3FBF6F357436E68B600B7FBF6F666
:1015A00002FB08F86F68BF00B8FBF7F75FF0640C48
:1015B000B7FBFCF701FB1766360132366427B6FB32
:1015C000F7F616F0F00616EB031602FB09F96B6846
:1015D0009B00B9FBF3F302FB00F268688000B2FBEA
:1015E000F0F06422B0FBF2F001FB10310801323060
:1015F0006421B0FBF1F010F00F00861928688660B6
:10160000BDE8F183F369FFFF0010014000140140C1
:101610002DE9FC410400002C01D10120A2E1207839
:10162000C0075CD5DFF84003016811F00C01042904
:1016300009D0006810F00C0008280ED1DFF82C0348
:101640000068400209D5DFF828030068800346D50A
:101650006068002843D1012084E16068B0F5803FD4
:1016600006D1DFF80C03016851F48031016017E006
:101670006068B0F5A02F0AD1DFF8F402016851F4D8
:1016800080210160016851F48031016008E0B848B0
:10169000016831F480310160016831F4802101601A
:1016A000606800280DD001F097FA0500B048006886
:1016B000800314D401F090FA401B6528F6D3032070
:1016C00050E101F089FA0500A9480068800306D5B9
:1016D00001F082FA401B6528F6D3032042E120780E
:1016E00080074BD5A048016811F00C0F08D00068A6
:1016F00010F00C00082814D19C480068400210D457
:101700009B480168890704D5E168012901D00120BF
:1017100028E1016831F0F801226951EAC201016053
:101720002CE0E068002818D001209249086001F000
:1017300053FA05008E480168890706D401F04CFA77
:10174000401B0328F6D303200CE1016831F0F801B7
:10175000226951EAC201016010E000208549086059
:1017600001F03AFA050082480068800706D501F0CA
:1017700033FA401B0328F6D30320F3E02078000758
:1017800024D56069002810D001207B49086001F051
:1017900023FA050079480068800717D401F01CFA85
:1017A000401B0328F6D30320DCE0002072490860C8
:1017B00001F012FA050071480068800706D501F0B3
:1017C0000BFA401B0328F6D30320CBE02078400718
:1017D00075D500266A4F3868C0000CD400200090F0
:1017E000386850F080503860386810F080500090B1
:1017F000009801200600DFF88C81D8F80000C005B1
:1018000013D4D8F8000050F48070C8F8000001F03C
:10181000E3F90500D8F80000C00506D401F0DCF9B2
:10182000401B0328F6D303209CE0A068012805D1C3
:101830005548016851F00101016015E0A0680528D4
:1018400009D15148016851F004010160016851F06B
:101850000101016008E04C48016849084900016045
:10186000016831F004010160A06800280FD001F088
:10187000B3F9050044480068800718D401F0ACF9BA
:10188000401B41F289318842F4D303206AE001F021
:10189000A3F905003C480068800708D501F09CF9D1
:1018A000401B41F289318842F4D303205AE03000D2
:1018B000C0B2012803D1386830F080503860A06988
:1018C00000284ED02848006810F00C00082846D0A8
:1018D000A069022832D12D4E0020306001F07CF941
:1018E0000700DFF88C80D8F80000800106D501F0F1
:1018F00073F9C01B0328F4D3032033E0E169206AA5
:101900000143606A51EA8011A06A4008401E51EA12
:101910000041E06A51EA0061144801600120306032
:1019200001F05AF90500D8F80000800119D401F03F
:1019300053F9401B0328F6D3032013E0002013497A
:10194000086001F049F9050009480068800108D5E0
:1019500001F042F9401B0328F6D3032002E00120E6
:1019600000E00020BDE8F68108380240043802405B
:101970000038024000004742800E4742743802405F
:10198000403802400070004070380240600047421A
:101990007CB50024002000901948016851F0805166
:1019A0000160006810F080500090009801201549F7
:1019B000086001F011F90500104C2068C00308D43C
:1019C00001F00AF9401B40F2E9318842F4D30320C8
:1019D00012E001200C49086001F0FEF806002068C2
:1019E000800308D401F0F8F8801B40F2E931884206
:1019F000F5D3032000E0002076BD00000470004015
:101A00004038024040000E4244000E422DE9F041B1
:101A100004000D00002C01D1012094E0574F3868DC
:101A200010F00F00A84207D23D70386810F00F0088
:101A3000A84201D0012086E02078800716D52078C2
:101A4000400704D54E48016851F4E0510160207808
:101A5000000704D54A48016851F4604101604849D3
:101A60000A6832F0F002A06802430A602078C007DA
:101A700038D56068012805D142480068800313D436
:101A8000012060E06068022802D06068032805D168
:101A90003C480068800107D4012054E039480068C0
:101AA000800701D401204EE0DFF8D480D8F8001080
:101AB0008908890060680143C8F8001001F08CF8BB
:101AC0000600D8F8000010F00C006168B0EB810F40
:101AD00008D001F081F8801B41F289318842F0D3AF
:101AE000032030E0386810F00F00854207D23D70C7
:101AF000386810F00F00A84201D0012023E02078C0
:101B0000400706D51E490A6832F4E052E0680243F5
:101B10000A602078000707D51948016831F4604150
:101B2000226951EAC201016000F034F81649144AF2
:101B30001268C2F30312895CC840144908600F2080
:101B400000F0CEFB0020BDE8F0811048006870472F
:101B500080B5FFF7FAFF0E49094A1268C2F38222E4
:101B6000895CC84002BD80B5FFF7EFFF0849044A11
:101B70001268C2F34232895CC84002BD003C024098
:101B80000838024000380240283000082C000020AD
:101B90009C3000082DE9F041002400250026002794
:101BA0001F48006810F00C00002804D0042804D05E
:101BB000082804D031E01B4830E01B482EE0DFF855
:101BC0006C80D8F8000010F03F000400D8F8000046
:101BD00040020CD5D8F80000C0F388101249A1FBD0
:101BE00000012200002300F0FDFF05000BE0D8F803
:101BF0000000C0F388100B49A1FB00012200002364
:101C000000F0F0FF0500D8F80000C0F30140401CD0
:101C100040000600B5FBF6F000E00248BDE8F081A8
:101C2000083802400024F40000127A000438024010
:101C300070B5040000F0D0FF0500260016F1010F7A
:101C400002D004480078361800F0C6FF401BB042AE
:101C5000FAD370BD3000002010B50446AFF3008009
:101C6000204600F005F80446AFF30080204610BD82
:101C700070B500F10F06F608F600B04240D2082E0B
:101C800004D2082602E0083000F047F8DFF80451DB
:101C90002C68210005D1002007E00268B24221D261
:101CA000011D08680028F8D12068291D0A688242B1
:101CB00022D01368B34238BF111DF7D312E0931935
:101CC0000B60801B54685C600B68186016600968C4
:101CD00000291DBF48680028081D0020286002F167
:101CE000080070BD61B10A681068A0F10803B34232
:101CF000E5D250680860EAE701F08CF80028C2D10C
:101D0000002070BD10B5040006D0AFF3008020465F
:101D100000F003F8AFF3008010BD002800D1704739
:101D200070B4A0F108021368072B2BD913F0070F2A
:101D300028D1184C616809B18A4202D251606260B0
:101D400013E0486800B3904238BF0146F9D31BE066
:101D5000964203D11B180B600A4606E0486810B192
:101D6000134498420ED350604A60506850B11368D3
:101D7000D518854206D1002626600168CB1813606D
:101D80004068506070BC704708680E18B242DFD2DD
:101D900070BC7047440200202DE9F84F82460E00C7
:101DA00014001D005FF0010BDFF80072387E01287F
:101DB00001D1022038E0012038764CF250384046FC
:101DC00000F04FF881464846C0B2002828D1BAF149
:101DD000000F05D12100C9B2300000F09BF815E0DA
:101DE000BAF1010F05D1210089B2300000F083F86B
:101DF0000CE0BAF1020F04D12100300000F06CF8C1
:101E000004E022002B00300000F053F8404600F0C0
:101E100028F88146DFF89801016849084900016007
:101E2000002038764846C0B2BDE8F28F00206049F5
:101E30000A68002A09D5604A604B1360604B136042
:101E40000968002901D501210800C0B2704758482F
:101E5000016851F000410160002070475348C0699B
:101E6000704770B50400002600205049C86100F09A
:101E7000B3FE05004F480168C9030BD514F1010FEB
:101E8000F8D0002C04D000F0A7FE401B8442F1D211
:101E900003200DE00168C90701D501210160006838
:101EA00010F4F97F03D000F042F8012000E0002098
:101EB00070BD10B43E490C6834F440740C600C687A
:101EC00054F440740C600C6854F001040C6002601F
:101ED000011D0B6010BC7047354A136833F4407322
:101EE0001360136853F400731360136853F0010315
:101EF0001360016070472E4A136833F44073136017
:101F0000136853F480731360136853F00103136074
:101F100001807047264A136833F4407313601368D6
:101F20001360136853F00103136001707047214878
:101F30000168C90606D51D49CA6952F01002CA6176
:101F4000102101600168890606D51849CA6952F056
:101F50000802CA61202101600168490606D51349BB
:101F6000CA6952F00402CA61402101600168090691
:101F700006D50E49CA6952F00202CA618021016089
:101F80000168C90507D50949CA6952F00102CA6149
:101F90004FF4807101600168890706D50349CA6959
:101FA00052F02002CA61022101607047F401002052
:101FB000103C02400C3C0240043C024023016745B7
:101FC000AB89EFCDFFF79EBE2DE9F04704000D0071
:101FD0005FF0010A0026DFF8A071387E012801D1E8
:101FE000022046E0012038764CF250394846FFF78F
:101FF00038FF80464046C0B2002836D15FF0FF303F
:1020000028602068012810D161682069C0B200F002
:1020100032F84846FFF725FF8046DFF860110A686E
:10202000DFF85C0102400A601DE0A0680600E1687C
:10203000A06841188E4216D22169C9B2300000F062
:102040003FF84846FFF70DFF8046DFF83001016892
:1020500031F0FA0101604046C0B2002801D02E6084
:1020600001E0761CE3E700F05FF800203876404698
:10207000C0B2BDE8F08710B4DFF80021136833F474
:1020800040731360032906D1136843F4004353F0EF
:10209000040313600AE0012904D1136853F0040318
:1020A000136003E0136853F40043136013680400E3
:1020B000E4B2240254F480342343136010BC70470C
:1020C00030B400220B00DBB2002B01D100230FE063
:1020D0000B00DBB2012B02D14FF4807308E00B0040
:1020E000DBB2022B02D14FF4007301E04FF44073D6
:1020F0000C2800D3001DDFF88420146834F44074E9
:10210000146014681C431460146834F0F8041460FC
:102110001468C50055F002052C431460146854F48B
:102120008034146030BC70471648016889050FD5AB
:10213000016831F400710160016851F400610160CF
:10214000016831F400610160016851F400710160BF
:10215000016849050FD5016831F4806101600168AB
:1021600051F480510160016831F4805101600168CF
:1021700051F4806101607047F4010020103C02407E
:10218000FB7FFFFF003C024010B410F00703DFF8B4
:10219000304122684FF6FF010A40DFF8281151EA6A
:1021A00003210A43226010BC7047DFF81401006865
:1021B000C0F302207047010049B2002909D401226E
:1021C00010F01F018A40404903005BB25B0941F8EF
:1021D0002320704710B4020052B2002A05D40A012D
:1021E0003A4B040064B21A5508E00A01384B040067
:1021F00064B214F00F04234403F8042C10BC70479D
:1022000070B4030013F00704D4F10700052801D3CC
:10221000042001E0D4F10700251D072D01D200257F
:1022200000E0E51E012616FA00F0401E0140A9401C
:1022300016FA05F56D1E2A401143080070BC704760
:1022400010B50400601EB0F1807F01D301200EE0C4
:10225000601E204908600F215FF0FF30FFF7BAFFD2
:1022600000201D49086007201C490860002010BD9F
:1022700010B504002000FFF787FF10BD2DE9F041E5
:1022800004000D0016000027FFF78FFF8046320084
:1022900029004046FFF7B4FF0100200040B2FFF7DD
:1022A00099FFBDE8F08110B50400200040B2FFF7AF
:1022B00082FF10BD10B504002000FFF7C1FF10BD64
:1022C0000CED00E00000FA0500E100E000E400E0B1
:1022D00018ED00E014E000E018E000E010E000E09D
:1022E00010B504004FF47A700D490978B0FBF1F095
:1022F0000C490968B1FBF0F0FFF7DCFF002801D0C2
:1023000001200CE0102C09D2002221005FF0FF30E8
:10231000FFF7B4FF04480460002000E0012010BD76
:10232000300000202C000020280000202DE9F8417A
:102330000023002400260025102D80F00A810127AB
:1023400017FA05F213000A681A4014009C4240F084
:10235000FE804A68022A02D04A68122A1FD12A0047
:10236000D20800EB8202D2F820C05FF00F0E15F009
:102370000702D2B292001EFA02FE3CEA0E0CD1F81D
:1023800010E015F00702D2B292001EFA02FE5EEAD9
:102390000C0C66462A00D20800EB82021662D0F8C6
:1023A00000C05FF0030E2A00D2B252001EFA02F201
:1023B0003CEA020C91F8048018F003082A00D2B21B
:1023C000520018FA02F858EA0C0CC0F800C04A682B
:1023D000012A08D04A68022A05D04A68112A02D088
:1023E0004A68122A1BD186682A00D2B252001EFA0D
:1023F00002F29643D1F80C802A00D2B2520018FAA9
:1024000002F858EA060686604268AF40BA434F6851
:10241000C7F30017AF403A439446C0F804C0C668FB
:102420002A00D2B252001EFA02FE36EA0E068F6869
:102430002A00D2B2520097403E43C6604A68D2009A
:1024400040F1858000220092DFF82421176857F4BC
:1024500080471760126812F480420092009ADFF8F9
:1024600014C12A0092085CF822705FF00F0E15F07C
:102470000302D2B292001EFA02FE37EA0E07DFF81C
:10248000F820904201D100262EE0DFF8F0209042A3
:1024900001D1012628E03A4A904201D1022623E0E8
:1024A000384A904201D103261EE0374A904201D1BA
:1024B000042619E0354A904201D1052614E0344A39
:1024C000904201D106260FE0324A904201D1072600
:1024D0000AE0314A904201D1082605E02F4A904295
:1024E00001D1092600E00A26F6B215F00302D2B2A5
:1024F0009200964037432A0092084CF82270284EEA
:102500003268A243D1F804C05FEACC3C00D5224334
:102510003260244F3E68A643D1F804C05FEA8C3C89
:1025200000D526433E60204F3A68A243D1F804C04C
:102530005FEACC2C00D522433A601C4F3E68A6438C
:10254000D1F804C05FEA8C2C00D526433E606D1C98
:10255000F2E6BDE8F1811300DBB2002B03D00B00E3
:102560009BB2836103E00B009BB21B048361704745
:102570004438024008380140000002400004024094
:1025800000080240000C024000100240001402400B
:1025900000180240001C02400020024000240240BB
:1025A000003C0140043C0140083C01400C3C01401F
:1025B0002DE9F84386B004000020009051480168DE
:1025C00051F001010160016811F0010100910099D1
:1025D00000210091016851F001010160016811F0D2
:1025E0000101009100990021009147490A6852F0C9
:1025F00010020A60096811F0100100910099002191
:102600000091016851F480010160006810F48000BD
:10261000009000984FF4007001900220029000207A
:1026200003900220049007200590384E01A9300045
:10263000FFF77CFE4FF4806501950720059001A906
:102640003000FFF773FE324E324830605FF00067B3
:1026500077604020B0600020F0603561002070613C
:102660000020B0610020F061002030620020706224
:102670000320B0625FF40008C6F82C805FF40019F4
:10268000C6F83090300000F04BF82663B463224E59
:102690002248306077600020B0600020F060356133
:1026A000002070610020B0610020F0615FF4003014
:1026B0003062002070620320B062C6F82C80C6F839
:1026C0003090300000F02CF86663B46301220021E2
:1026D0004620FFF7D3FD4620FFF7E5FD002200214D
:1026E0004420FFF7CBFD4420FFF7DDFD0022002151
:1026F0002520FFF7C3FD2520FFF7D5FD07B0BDE876
:10270000F0830000303802404438024000000240AC
:1027100034000020B8640240940000208864024025
:1027200070B50400002600F057FA0500002C01D116
:10273000012065E0606A0028002084F8340002204F
:1027400084F835002068006840084000216808606F
:1027500020680068C0070BD500F03EFA401B062831
:10276000F6D320206065032084F83500032047E07D
:1027700020680168DFF8B40301406268A068024382
:10278000E06802432069024360690243A069024392
:10279000E0690243206A02431143606A042803D1BE
:1027A000E26A206B02431143206801602068466999
:1027B000F608F600606A0643606A042810D1A06A31
:1027C0000643E06A00280BD0200000F0B5F900288D
:1027D00006D040206065012084F8350001200FE01C
:1027E00020684661200000F087F901003F22E06D7B
:1027F00082408A6000206065012084F83500002056
:1028000070BD2DE9F84304000D0016001F005FF0B5
:102810000008D4F8589094F83400012801D102201F
:1028200039E0012084F8340094F8350001282BD1D8
:10283000022084F83500002060653B00320029004A
:10284000200000F042F93F21E06D8140C9F80810F6
:102850002068006850F01600216808602068406910
:1028600050F0800021684861206C002805D0206865
:10287000006850F00800216808602068006850F087
:1028800001002168086004E0002084F83400022080
:1028900080464046C0B2BDE8F283010091F83500A1
:1028A000022803D080204865012009E0052081F836
:1028B000350008680068400840000A681060002081
:1028C0007047F8B5040000200090DFF8640200684B
:1028D0004FF41651B0FBF1F5A66D37680821E06D95
:1028E00011FA00F0074210D02068006840070CD5AC
:1028F0002068006830F0040022681060E06D8140BC
:10290000B160606D50F001006065E06D3900C1405C
:10291000C8070BD520684069000607D50121E06D86
:102920008140B160606D50F0020060650421E06D8F
:1029300011FA00F007420AD020680068800706D527
:10294000E06D8140B160606D50F004006065102161
:10295000E06D11FA00F007422CD0206800680007F3
:1029600028D5E06D8140B16020680068400311D532
:1029700020680068000306D4206C00281AD02000CC
:10298000216C884716E0A06C002813D02000A16CB1
:1029900088470FE020680068C00505D420680068FB
:1029A00030F0080021680860206C002802D0200068
:1029B000216C88472021E06D11FA00F007425FD0BA
:1029C00020680068C0065BD5E06D8140B16094F876
:1029D0003500052828D12068006830F016002168ED
:1029E00008602068406930F0800021684861206CF0
:1029F000002802D1A06C002805D02068006830F0C3
:102A00000800216808603F21E06D8140B16000202E
:102A100084F83400012084F83500206D002802D0AD
:102A20002000216D88474FE020680068400311D5E1
:102A300020680068000306D4606C002820D02000C5
:102A4000616C88471CE0E06B002819D02000E16B26
:102A5000884715E020680068C0050BD4206800682E
:102A600030F0100021680860002084F83400012054
:102A700084F83500E06B002802D02000E16B884725
:102A8000606D002820D0606DC00717D5052084F840
:102A90003500206800684008400021680860009800
:102AA000401C0090854203D320680068C007F6D41C
:102AB000002084F83400012084F83500E06C002800
:102AC00002D02000E16C8847F1BD30B4046824686E
:102AD00034F4802405682C60046863608468402CAA
:102AE00004D10468A2600468E16003E00468A160A6
:102AF0000468E26030BC7047017801F0FF011039D2
:102B00001822B1FBF2F10B4A525CC265042905D3CD
:102B10000268920A9202121D826503E00268920A1C
:102B200092028265806D7047000000003F8010F0C7
:102B30002C0000209430000810B402000020936A9A
:102B40009169002916D1002B05D0022B03D008D3A0
:102B5000032B0DD00DE0D16AC90101D50121080078
:102B600035E0D16AB1F1C07F01D1012108002EE02A
:102B70002DE02CE09169B1F5005F18D1002B05D054
:102B8000022B03D005D3032B09D00FE0012108004D
:102B90001DE0D16AC90101D50121080017E0D16A01
:102BA000B1F1C07F01D10121080010E00FE0190050
:102BB0000029022902D9C91E03D008E0012108001A
:102BC00005E0D16AC90101D501210800FFE7C0B2C3
:102BD00010BC70477047704701480068704700BFDD
:102BE00050020020BBBBE1B1B2F5803F80F07E8097
:102BF000022A1ED98C46B1FBF2F102FB11C31B0461
:102C000043EA1043B3FBF2FC02FB1C3380B240EA00
:102C10000343B3FBF2F002FB103240EA0C40002306
:102C20007047022A05D98446B0FBF2F002FB10C2BD
:102C300070474AB105D100F0010249085FEA30004F
:102C4000704700220023704700F0FAB80B00020022
:102C5000002100207047904271EB030CF6D3B3F5CE
:102C6000803F2FD2F0B5B3FA83F7B1FA81F4A7F120
:102C70000F0E3D1B5340CEF1200602FA0EF2F34137
:102C80005340B5F10F0746D80F3C2C444140C4F1E6
:102C90002006A040F1414140B1FBF3F603FB1611C1
:102CA000A2FB0645001BA94102D2761E801859419D
:102CB00080EA010221FA0EF362FA0EF200215A4074
:102CC0003046F0BD30B4B1FBF3FC03FB1C11A2FB9A
:102CD0000C45001BA94103D2ACF1010C80185941ED
:102CE00030BC02460B46604600217047B2F1807F3F
:102CF00065D3F0B5B2FA82F7B1FA81F4C7F10F06E5
:102D00003D1B22FA06F307F1110EF24120355A401D
:102D1000B5F10F07B8D94140C4F12006A040F141F8
:102D20004140B1FBF3FC03FB1C11A2FB0C45001B53
:102D3000A94103D2BCF1010C801859410F2F12D3C5
:102D40000F3FC90341EA5041B1FBF3F603FB1611F3
:102D5000A2FB0645D4EBC030A94102D2761E8018F2
:102D6000594146EACC3C07B34140C7F12006B84080
:102D7000F1414140B1FBF3F603FB1611A2FB0645FE
:102D8000001BA94102D2761E8018594180EA010237
:102D900021FA0EF3C7F1200462FA0EF20CFA07F0E2
:102DA0005A402CFA04F13043F0BD80EA010221FAC6
:102DB0000EF3002162FA0EF260465A40F0BD8C46D6
:102DC000B1FBF2F102FB11C31B0243EA1063B3FB38
:102DD000F2FC02FB1C331B024CEA002043EA1063A6
:102DE000B3FBF2FC02FB1C331B024CEA002043EA5B
:102DF0001063B3FBF2FC02FB1C331B024CEA002005
:102E000043EA1063B3FBF2FC02FB1C324CEA0020E5
:102E1000002370470749086808B10020704706483A
:102E2000C008C00008600549C908C900091A016046
:102E3000704700BF5402002067020020602200207B
:102E4000704700000F48016851F4700101600E499D
:102E5000086850F00100086000200C4A10600A6801
:102E60000B4802400A600B480B4A1060086830F4B7
:102E7000802008600020094908605FF00060084970
:102E80000860704788ED00E00038024008380240D2
:102E9000FFFFF6FE10300024043802400C380240D8
:102EA00008ED00E07047FEE7FEE7FEE7FEE770474B
:102EB0007047704780B500F015F801BD80B508482F
:102EC000406BFFF7FEFC01BD80B50548006BFFF7C6
:102ED000F8FC01BD80B50248FEF745F801BD0000D1
:102EE000F400002003480168034A12788918016041
:102EF000704700BF500200203000002030B450F86E
:102F0000041B79B10268436802440830DC0744BFFF
:102F1000A9F10104E31852F8045B43F8045B091FAC
:102F2000F9D1ECE730BC704710B507497944183146
:102F3000064C7C44163404E00A68081D1144884796
:102F40000146A142F8D110BD2C0000004C00000049
:102F50004EF68851CEF20001086840F47000086017
:102F6000BFF34F8FBFF36F8F4FF00070E1EE100A89
:102F7000704700000FDDFFFF280200003400002032
:102F80000000000079FFFFFF34000000780200001D
:102F9000000000200000000000F00DF8002801D023
:102FA000FFF7C2FFAFF300800020AFF30080FDF712
:102FB000FDF800F002F80120704700F001B80000B1
:102FC0000746384600F002F8FBE7000080B5AFF393
:102FD0000080024A11001820ABBEFBE72600020069
:102FE0005365727665722069732072656164790A2F
:102FF0000000000052656369657665206D6173733A
:103000006167653A20000000436C6561722053657A
:1030100063746F7200000000577269746520536515
:1030200063746F72000000000000000000000000E8
:1030300001020304060708090148804701480047C8
:10304000452E000879300008436C65617220416CA0
:103050006C000000436C6561722050616765000080
:103060005265616420464C415348000057726974B0
:103070006520506167650000AFF30080FFF768FFCF
:10308000FFF78AFF00000000000000004E45585482
:1030900000000000000610160006101600000000D8
:1030A0000102030400200040FFF7FEBFFFF7FEBF50
:1030B000FFF7FEBFFFF7FEBFFFF7FEBFFFF7FEBF44
:1030C000FFF7FEBFFFF7FEBFFFF7FEBFFFF7FEBF34
:1030D000FFF7FEBFFFF7FEBFFFF7FEBFFFF7FEBF24
:1030E000FFF7FEBFFFF7FEBFFFF7FEBFFFF7FEBF14
:1030F000FFF7FEBFFFF7FEBFFFF7FEBFFFF7FEBF04
:10310000FFF7FEBFFFF7FEBFFFF7FEBFFFF7FEBFF3
:10311000FFF7FEBFFFF7FEBFFFF7FEBFFFF7FEBFE3
:10312000FFF7FEBFFFF7FEBFFFF7FEBFFFF7FEBFD3
:10313000FFF7FEBFFFF7FEBFFFF7FEBFFFF7FEBFC3
:10314000FFF7FEBFFFF7FEBFFFF7FEBFFFF7FEBFB3
:10315000FFF7FEBFFFF7FEBFFFF7FEBFFFF7FEBFA3
:10316000FFF7FEBFFFF7FEBFFFF7FEBFFFF7FEBF93
:10317000FFF7FEBFFFF7FEBFFFF7FEBFFFF7FEBF83
:10318000FFF7FEBFFFF7FEBFFFF7FEBFFFF7FEBF73
:10319000FFF7FEBFFFF7FEBFFFF7FEBFFFF7FEBF63
:1031A000FFF7FEBFFFF7FEBFFFF7FEBFFFF7FEBF53
:1031B000FFF7FEBFFFF7FEBFFFF7FEBFFFF7FEBF43
:1031C000FFF7FEBFFFF7FEBFFFF7FEBFFFF7FEBF33
:1031D000FFF7FEBFFFF7FEBFFFF7FEBFFFF7FEBF23
:1031E000FFF7FEBFFFF7FEBFFFF7FEBFFFF7FEBF13
:1031F000FFF7FEBFFFF7FEBFFFF7FEBFFFF7FEBF03
:10320000FFF7FEBFE02F0008483000080830000834
:103210005430000860300008183000086C30000896
:10322000F42F0008001802400018024010000000AF
:083230000024F400010000007D
:040000050800307946
:00000001FF
