:020000040800F2
:10000000002000106D2B0008D9290008DB2900080A
:10001000DD290008DF290008E129000800000000B0
:10002000000000000000000000000000E3290008BC
:10003000E529000800000000E7290008E929000878
:10004000FD2B0008012C0008052C0008092C0008D5
:100050000D2C0008112C0008152C0008192C000884
:100060001D2C0008212C0008252C0008292C000834
:100070002D2C0008312C0008352C0008392C0008E4
:100080003D2C0008412C0008452C0008492C000894
:100090004D2C0008512C0008552C0008592C000844
:1000A0005D2C0008612C0008652C0008692C0008F4
:1000B0006D2C0008712C0008752C0008792C0008A4
:1000C0007D2C0008812C0008852C0008892C000854
:1000D0008D2C0008092A0008912C0008952C000896
:1000E000992C00089D2C0008A12C0008A52C0008C4
:1000F000A92C0008AD2C0008B12C0008B52C000874
:10010000B92C0008BD2C0008C12C0008C52C000823
:10011000C92C0008CD2C0008D12C0008D52C0008D3
:10012000D92C0008DD2C0008E12C0008E52C000883
:10013000E92C0008ED2C0008F12C0008F52C000833
:10014000F92C0008FD2C0008012D0008052D0008E1
:10015000F1290008092D0008FD2900080D2D0008CF
:10016000112D0008152D0008192D00081D2D00085F
:10017000212D0008252D0008292D00080000000071
:100180002D2D0008312D0008352D0008392D0008CF
:100190003D2D0008412D0008452D0008492D00087F
:1001A0004D2D0008512D0008552D000810B50400F4
:1001B000002C01D1012033E0A0690028FFD194F880
:1001C0003900002805D1002084F83800200000F014
:1001D00023FC242084F839002068C06830F40050E3
:1001E0002168C860200000F09FFA2068006930F4A0
:1001F0009040216808612068406930F02A00216839
:1002000048612068C06850F400502168C860002030
:10021000E063202084F83900202084F83A00002090
:1002200010BD73B50400150094F83900202841D1A1
:100230000198002803D0280080B2002801D10120B5
:1002400039E094F83800012801D1022033E0012080
:1002500084F8380001982062A584E5840020E063DA
:10026000212084F839000FF25120216BC8630FF26E
:100270007D20216B08640FF2D920216BC864002017
:10028000216B086501AE2B009BB22068021D31680E
:10029000206B00F0EAFC7FF040002168086000203D
:1002A00084F838002068406950F080002168486177
:1002B000002000E0022076BD73B50400150094F81C
:1002C0003A00202851D10198002803D0280080B29C
:1002D000002801D1012049E094F83800012801D11B
:1002E000022043E0012084F838000198A062A5852F
:1002F0000020E063222084F83A000FF20120616BB5
:10030000C8630FF23D20616B08640FF24520616BFA
:10031000C8640020616B086501AE2B009BB2326897
:100320002068011D606B00F0A0FC00200090206898
:10033000006800902068406800900098002084F8D1
:1003400038002068C06850F480702168C860206858
:10035000406950F00100216848612068406950F010
:10036000400021684861002000E0022076BD2DE9B0
:10037000F8430600306807683068D0F80C803068B1
:10038000D0F814900020002517F00F04002C08D19D
:10039000B80606D55FEA886003D5300000F073F92F
:1003A00088E0002C74D05FEAC97002D418F4907F02
:1003B0006ED017F00100C0B2002806D05FEAC85026
:1003C00003D5F06B50F00100F063780708D519F001
:1003D0000100C0B2002803D0F06B50F00200F063BF
:1003E000B80708D519F00100C0B2002803D0F06B9F
:1003F00050F00400F063380708D519F00100C0B2CE
:10040000002803D0F06B50F00800F063F06B002878
:100410003DD0B80605D55FEA886002D5300000F00F
:1004200032F930684069800910F001000500F06B76
:10043000000701D4002D25D0300000F0BFF830684F
:10044000406940061AD53068406930F04000316894
:100450004861706B00280DD00FF28510716B086534
:10046000706B00F04EFC002811D0706B716B096D41
:1004700088470CE0300000F092FE08E0300000F009
:100480008EFE04E0300000F08AFE0020F06311E0F0
:10049000380606D55FEA086003D5300000F0ACF8F6
:1004A00008E0780606D55FEA486003D5300000F022
:1004B000DAF8FFE7BDE8F18338B50400A56B2068E2
:1004C0000068C0050ED40020E8842868406930F038
:1004D0008000296848612868C06850F04000296899
:1004E000C86002E0280000F046FE31BD38B50400C7
:1004F000A56B280001F0F4F831BD000038B5040008
:10050000A56B20680068C00516D40020E88528681F
:10051000C06830F480702968C86028684069400865
:100520004000296848612868406930F04000296827
:100530004861202085F83A00280000F026FE31BDF1
:1005400038B50400A56B280001F0CBF831BD0000E0
:10055000F8B506000020B76B39684C69E40914F05F
:10056000010497F83910212906D1002C04D000206D
:10057000F884380000F018F838684569AD0915F0BE
:10058000010597F83A00222806D1002D04D000205A
:10059000F885380000F012F8F86B50F01000F8639E
:1005A000380000F0FCFDF1BD0168C96831F0C00100
:1005B0000268D160202180F8391070470168C9684D
:1005C00031F490710268D1600168496949084900B5
:1005D00002685161202180F83A1070470000000045
:1005E00038B50400A56B0020E8850020E8842800C9
:1005F00000F0D5FD31BD0000010091F8390021283F
:100600002FD18868B0F5805F11D1086A0200108888
:10061000C005C00D0B6858600869002803D1086A3E
:10062000801C086209E0086A401C086205E0086A4C
:10063000431C0B6200780B685860C88C401EC8844D
:1006400080B200280BD10868C06830F080000B68C9
:10065000D8600868C06850F040000B68D86000207F
:1006600000E00220704710B504002068C06830F038
:1006700040002168C860202084F83900200000F084
:100680007AFD002010BD38B5040094F83A00222805
:1006900048D1A068B0F5805F16D1A06A0500206936
:1006A000002808D120684068C005C00D2880A06AD5
:1006B000801CA0621AE02068406800F0FF002880DB
:1006C000A06A401CA06211E02069002806D1A06A3F
:1006D000411CA16221684968017007E0A06A411CC1
:1006E000A1622168496811F07F010170E08D401E10
:1006F000E08580B2002813D12068C06830F4907083
:100700002168C8602068406940084000216848614D
:10071000202084F83A00200000F037FD002002E09D
:10072000002000E0022032BD2DE9F8430500002141
:100730002868026932F44052E8680243286802617E
:100740002868C368B1480340AC68286904436869F5
:100750000443E869044323432868C3602868446964
:1007600034F44074A869044328684461E869B0F52A
:10077000004F40F0A6802868A549884203D0286829
:10078000A44988424ED101F05AF8060001F057F80A
:10079000070001F054F8804601F051F8814601F05D
:1007A0004EF86421192256436B685B00B6FBF3F3E5
:1007B0006426B3FBF6F357436E687600B7FBF6F694
:1007C00002FB08F86F687F00B8FBF7F75FF0640C76
:1007D000B7FBFCF701FB1766F60032366427B6FB61
:1007E000F7F6760016F4F87616EB031602FB09F915
:1007F0006B685B00B9FBF3F302FB00F26868400032
:10080000B2FBF0F06422B0FBF2F001FB1031C80043
:1008100032306421B0FBF1F010F00700861928682F
:100820008660F1E001F000F8060000F0FDFF07002F
:1008300000F0FAFF804600F0F7FF814600F0F4FF79
:100840006421192256436B685B00B6FBF3F3642600
:10085000B3FBF6F357436E687600B7FBF6F602FB80
:1008600008F86F687F00B8FBF7F75FF0640CB7FB20
:10087000FCF701FB1766F60032366427B6FBF7F685
:10088000760016F4F87616EB031602FB09F96B688E
:100890005B00B9FBF3F302FB00F268684000B2FBB7
:1008A000F0F06422B0FBF2F001FB1031C8003230EE
:1008B0006421B0FBF1F010F007008619286886600B
:1008C000A2E028685249884203D0286851498842EA
:1008D0004DD100F0B4FF060000F0B1FF070000F0BA
:1008E000AEFF804600F0ABFF814600F0A8FF642118
:1008F000192256436B689B00B6FBF3F36426B3FBE7
:10090000F6F357436E68B600B7FBF6F602FB08F83D
:100910006F68BF00B8FBF7F75FF0640CB7FBFCF73C
:1009200001FB1766360132366427B6FBF7F616F080
:10093000F00616EB031602FB09F96B689B00B9FB86
:10094000F3F302FB00F268688000B2FBF0F064226F
:10095000B0FBF2F001FB1031080132306421B0FB32
:10096000F1F010F00F008619286886604CE000F066
:100970005BFF060000F058FF070000F055FF8046BF
:1009800000F052FF814600F04FFF642119225643C8
:100990006B689B00B6FBF3F36426B3FBF6F3574397
:1009A0006E68B600B7FBF6F602FB08F86F68BF008A
:1009B000B8FBF7F75FF0640CB7FBFCF701FB1766B9
:1009C000360132366427B6FBF7F616F0F00616EB62
:1009D000031602FB09F96B689B00B9FBF3F302FBFA
:1009E00000F268688000B2FBF0F06422B0FBF2F025
:1009F00001FB1031080132306421B0FBF1F010F03E
:100A00000F00861928688660BDE8F183F369FFFF4F
:100A100000100140001401402DE9F84386B00400A5
:100A2000002000905148016851F001010160016807
:100A300011F001010091009900210091016851F02D
:100A400001010160016811F001010091009900218C
:100A5000009147490A6852F010020A60096811F0D3
:100A600010010091009900210091016851F480016A
:100A70000160006810F48000009000984FF400704E
:100A80000190022002900020039002200490072091
:100A90000590384E01A9300000F036FF4FF4806514
:100AA00001950720059001A9300000F02DFF324E7E
:100AB000324830605FF0006777604020B06000200F
:100AC000F0603561002070610020B0610020F061AD
:100AD00000203062002070620320B0625FF40008E2
:100AE000C6F82C805FF40019C6F83090300000F092
:100AF0004BF82663B463224E2248306077600020B2
:100B0000B0600020F0603561002070610020B061AD
:100B10000020F0615FF4003030620020706203203A
:100B2000B062C6F82C80C6F83090300000F02CF887
:100B30006663B46301220021462001F0A7F8462035
:100B400001F0B9F800220021442001F09FF8442070
:100B500001F0B1F800220021252001F097F82520AE
:100B600001F0A9F807B0BDE8F0830000303802407A
:100B7000443802400000024034000020B8640240C3
:100B8000940000208864024070B50400002601F043
:100B9000AFF80500002C01D1012065E0606A002853
:100BA000002084F83400022084F8350020680068B2
:100BB000400840002168086020680068C0070BD525
:100BC00001F096F8401B0628F6D32020606503202C
:100BD00084F83500032047E020680168DFF8B4039B
:100BE00001406268A0680243E06802432069024352
:100BF00060690243A0690243E0690243206A02433C
:100C00001143606A042803D1E26A206B0243114356
:100C10002068016020684669F608F600606A0643AD
:100C2000606A042810D1A06A0643E06A00280BD04D
:100C3000200000F0B5F9002806D0402060650120B2
:100C400084F8350001200FE020684661200000F0A4
:100C500087F901003F22E06D82408A6000206065D4
:100C6000012084F83500002070BD2DE9F843040010
:100C70000D0016001F005FF00008D4F8589094F89B
:100C80003400012801D1022039E0012084F8340029
:100C900094F8350001282BD1022084F8350000207B
:100CA00060653B0032002900200000F042F93F213E
:100CB000E06D8140C9F808102068006850F0160007
:100CC000216808602068406950F080002168486110
:100CD000206C002805D02068006850F008002168CA
:100CE00008602068006850F001002168086004E096
:100CF000002084F83400022080464046C0B2BDE89F
:100D0000F283010091F83500022803D08020486565
:100D1000012009E0052081F83500086800684008D6
:100D200040000A68106000207047F8B504000020F9
:100D30000090DFF8640200684FF41651B0FBF1F543
:100D4000A66D37680821E06D11FA00F0074210D057
:100D50002068006840070CD52068006830F0040067
:100D600022681060E06D8140B160606D50F001005C
:100D70006065E06D3900C140C8070BD52068406947
:100D8000000607D50121E06D8140B160606D50F033
:100D9000020060650421E06D11FA00F007420AD0FC
:100DA00020680068800706D5E06D8140B160606D05
:100DB00050F0040060651021E06D11FA00F0074268
:100DC0002CD020680068000728D5E06D8140B16014
:100DD00020680068400311D520680068000306D42D
:100DE000206C00281AD02000216C884716E0A06CE7
:100DF000002813D02000A16C88470FE0206800680D
:100E0000C00505D42068006830F00800216808603B
:100E1000206C002802D02000216C88472021E06D42
:100E200011FA00F007425FD020680068C0065BD569
:100E3000E06D8140B16094F83500052828D1206824
:100E4000006830F01600216808602068406930F0C2
:100E5000800021684861206C002802D1A06C002825
:100E600005D02068006830F00800216808603F2144
:100E7000E06D8140B160002084F83400012084F8E6
:100E80003500206D002802D02000216D88474FE0FA
:100E900020680068400311D520680068000306D46C
:100EA000606C002820D02000616C88471CE0E06B5B
:100EB000002819D02000E16B884715E02068006801
:100EC000C0050BD42068006830F01000216808606D
:100ED000002084F83400012084F83500E06B0028FD
:100EE00002D02000E16B8847606D002820D0606D43
:100EF000C00717D5052084F8350020680068400831
:100F00004000216808600098401C0090854203D38F
:100F100020680068C007F6D4002084F8340001205F
:100F200084F83500E06C002802D02000E16C88478E
:100F3000F1BD30B40468246834F4802405682C6062
:100F4000046863608468402C04D10468A26004686B
:100F5000E16003E00468A1600468E26030BC7047AF
:100F6000017801F0FF0110391822B1FBF2F10B4AB0
:100F7000525CC265042905D30268920A9202121DCE
:100F8000826503E00268920A92028265806D704772
:100F9000000000003F8010F02C000020E82B00082B
:100FA00010B402000020936A9169002916D1002B29
:100FB00005D0022B03D008D3032B0DD00DE0D16A4E
:100FC000C90101D50121080035E0D16AB1F1C07F26
:100FD00001D1012108002EE02DE02CE09169B1F54E
:100FE000005F18D1002B05D0022B03D005D3032BB3
:100FF00009D00FE0012108001DE0D16AC90101D527
:101000000121080017E0D16AB1F1C07F01D10121AF
:10101000080010E00FE019000029022902D9C91EBA
:1010200003D008E00121080005E0D16AC90101D51B
:1010300001210800FFE7C0B210BC704710B50320C3
:10104000DFF84416086100F059FE002000F08EFE23
:10105000012000F08BFE00F040F8DFF83006DFF8EA
:10106000301601605FF4E1314160002181600021B0
:10107000C16000210161002181610C2141610021D9
:10108000C161FFF793F8002801D000F0A2F800201A
:1010900000F0C7FE01242000C0B2012806D01AD3F8
:1010A000032810D006D3042811D014E000F090F9E2
:1010B0000400F0E7DFF8DC0510F11501143000F052
:1010C000A9F80400E7E700F0E7F80400E3E700F020
:1010D000B7F90400DFE7002010BD80B592B0002012
:1010E0000090DFF8B405016851F08051016000689C
:1010F00010F080500090009800200090DFF89C05D0
:10110000016851F440410160006810F440400090D3
:101110000098012006905FF48030079002200C9028
:101120005FF480000D9008200E904FF4B4700F9083
:10113000022010900720119006A800F09BFE0028C6
:1011400001D000F046F801F055F80F200190022080
:101150000290002003904FF4A05004904FF4805070
:101160000590052101A800F0BDFA002801D000F08B
:1011700030F813B000BD10B504000120DFF82015D1
:101180000870002000F04DFE10BD10B504000120D5
:10119000DFF80C150870002000F043FE10BD10B5FC
:1011A0000400012000F02BFE10BD10B4030010005D
:1011B000421EC0B2002809D018780C78A04202D094
:1011C0001000C0B203E05B1C491CF0E7002010BC1B
:1011D000704780B5012000F036FE642001F048F829
:1011E000F8E738B504000D00002000F008FE2A00E2
:1011F00092B22100DFF89404FFF75EF8002801D0D6
:10120000FFF7E7FFDFF8980401780129FAD1002100
:10121000017031BD2DE9F04104000D000026DFF81A
:10122000847402213800FFF7DCFF0221380000F04F
:101230007BF8002803D0DFF8700400782AE03878C3
:10124000207078782870207800280DD12078072821
:101250000ADBDFF8580400210170002141700221EF
:1012600000F099F8022015E02078012802D15FF003
:10127000040801E05FF003080221380000F046F89E
:101280000121200000F087F80121280000F083F8F8
:101290004046C0B2BDE8F08138B5DFF80844DFF859
:1012A000F453697D89B22000FFF79BFF0422DFF829
:1012B00000142000FFF779FF002801D100202875D5
:1012C000287D012806D014D303280DD007D3042885
:1012D0000AD00EE00220DFF8DC1308610BE0207872
:1012E000A8606078E86006E0206828606068686050
:1012F00001E0022009E0697D89B2200000F04BF88E
:10130000697D200000F002F8042032BD10B40022F4
:101310001300DBB28B4205D200231400E4B2035564
:10132000521CF5E710BC704710B40200107830284A
:101330002EDB002318000C00C0B2E4B2A04227D27A
:101340001800C0B2105C30280CDB1800C0B2105C72
:101350003A2807DA1800C0B2105C30381C00E4B23A
:10136000105513E01800C0B2105C40280CDB1800C8
:10137000C0B2105C482807DA1800C0B2105C3138DF
:101380001C00E4B2105501E0012002E05B1CD1E733
:10139000002010BC704770B504000D00002000F064
:1013A0002EFD2A0092B22100DFF8E002FEF739FF9D
:1013B000002801D0FFF70DFFDFF8E4623078012844
:1013C000FAD1002000F02DFD00203070002070BD0B
:1013D00010B5DFF8D04204212000FFF797FF042169
:1013E0002000FFF7FEFE0322A4A12000FFF7DDFE90
:1013F0000028EED104212000FFF788FF1021DFF83C
:10140000B8020068FFF7C7FF002813D102212000AF
:10141000FFF7E7FE02229AA12000FFF7C6FE002890
:1014200008D003212000FFF771FFC82000F020FF43
:10143000012004E003212000FFF768FF022010BD17
:101440002DE9F041DFF84C52287D012807D0C0F08B
:101450009C80032821D00ED3042855D095E002208B
:1014600000F096F8DFF85412C8610421DFF850024A
:10147000FFF791FF89E0E968A86800F0B5F8002857
:1014800005D00421DFF83C02FFF785FF04E00421CA
:10149000DFF83402FFF77FFF77E000264FF480602B
:1014A00000F0FAFE0700D5F8008000246868401CB0
:1014B00080451DD2012000F0A2FC404600F0B5F8A6
:1014C0003851012000F0ADFC18F10408241DB4F5DA
:1014D000806FEBD3002000F092FC4FF48061380065
:1014E000FFF759FF00200400002000F09AFCDDE720
:1014F000002C04D0210089B23800FFF74CFF0421F2
:1015000060A0FFF748FF40E0002069682C680C1BD2
:10151000241D2F682500AD0AB4F5806F04D2200089
:1015200000F0BAFE060004E04FF4806000F0B4FE64
:10153000060004216548FFF72EFF2800451E0028FD
:1015400011D04FF480613000FFF74BFE4FF4806202
:101550003100380000F06BF817F5806704215C4813
:10156000FFF719FFE9E7A0050BD021008905890DD8
:101570003000FFF736FEA205920D3100380000F072
:1015800056F804215348FFF706FF0220BDE8F0811A
:1015900038B504003C4D012028602000C0B201286D
:1015A00002D0022803D005E00120686005E0022097
:1015B000686002E0FF204149C86100F0DBFE0120C5
:1015C00000F01DFC4449280000F0A0FF002803D0D3
:1015D00000F0E8FE3949C861002000F022FC00F06C
:1015E000DAFE3648C06932BD70B504000D00264EE3
:1015F00000203060B460281B401CF06000F0BAFE90
:10160000012000F0FCFB3449300000F07FFF00288F
:1016100003D000F0C7FE2949C861012000F001FC99
:1016200000F0B9FE2548C06970BD00687047F8B584
:1016300007000D001400002600F09CFE012000F0C1
:10164000DEFB002C12D0F3202449086005EB0600D5
:10165000D0E900233900022000F042FE3F1D361D74
:10166000241F4FF47A7000F0A0FEEAE7012000F09A
:10167000D8FB00F090FEF1BD00000000434F4D008C
:101680004F4B0000454F46002C020020F400002084
:101690000010014014020020403802400070004059
:1016A000510200207401002050020020340100206B
:1016B000B82B0008B401002000000020D401002055
:1016C000C02B0008F0010020C82B0008D02B000818
:1016D000D82B0008E02B0008400200200C3C024000
:1016E000704770472DE9F04104000D00002C01D136
:1016F000012094E0574F386810F00F00A84207D23D
:101700003D70386810F00F00A84201D0012086E03B
:101710002078800716D52078400704D54E48016808
:1017200051F4E05101602078000704D54A4801686F
:1017300051F46041016048490A6832F0F002A06843
:1017400002430A602078C00738D56068012805D1B7
:1017500042480068800313D4012060E060680228DA
:1017600002D06068032805D13C480068800107D496
:10177000012054E039480068800701D401204EE080
:10178000DFF8D480D8F80010890889006068014328
:10179000C8F8001000F0ACFA0600D8F8000010F00D
:1017A0000C006168B0EB810F08D000F0A1FA801B3B
:1017B00041F289318842F0D3032030E0386810F0DC
:1017C0000F00854207D23D70386810F00F00A84224
:1017D00001D0012023E02078400706D51E490A6881
:1017E00032F4E052E06802430A602078000707D52F
:1017F0001948016831F46041226951EAC20101606F
:1018000000F034F81649144A1268C2F30312895CD6
:10181000C840144908600F2000F058FF0020BDE8C0
:10182000F08110480068704780B5FFF7FAFF0E4955
:10183000094A1268C2F38222895CC84002BD80B5A1
:10184000FFF7EFFF0849044A1268C2F34232895C8D
:10185000C84002BD003C0240083802400038024047
:101860005C2B00082C000020F02B00082DE9F04133
:1018700000240025002600271F48006810F00C00F7
:10188000002804D0042804D0082804D031E01B48E4
:1018900030E01B482EE0DFF86C80D8F8000010F034
:1018A0003F000400D8F8000040020CD5D8F8000032
:1018B000C0F388101249A1FB00012200002300F0B0
:1018C0002BFF05000BE0D8F80000C0F388100B498F
:1018D000A1FB00012200002300F01EFF0500D8F844
:1018E0000000C0F30140401C40000600B5FBF6F0CC
:1018F00000E00248BDE8F081083802400024F4000E
:1019000000127A00043802402DE9F8410023002437
:1019100000260025102D80F00A81012717FA05F214
:1019200013000A681A4014009C4240F0FE804A6886
:10193000022A02D04A68122A1FD12A00D20800EBDC
:101940008202D2F820C05FF00F0E15F00702D2B26B
:1019500092001EFA02FE3CEA0E0CD1F810E015F0DF
:101960000702D2B292001EFA02FE5EEA0C0C664634
:101970002A00D20800EB82021662D0F800C05FF0A5
:10198000030E2A00D2B252001EFA02F23CEA020C06
:1019900091F8048018F003082A00D2B2520018FA15
:1019A00002F858EA0C0CC0F800C04A68012A08D0B6
:1019B0004A68022A05D04A68112A02D04A68122AC7
:1019C0001BD186682A00D2B252001EFA02F2964358
:1019D000D1F80C802A00D2B2520018FA02F858EA64
:1019E000060686604268AF40BA434F68C7F30017E7
:1019F000AF403A439446C0F804C0C6682A00D2B249
:101A000052001EFA02FE36EA0E068F682A00D2B293
:101A1000520097403E43C6604A68D20040F185803C
:101A200000220092DFF83021176857F480471760D2
:101A3000126812F480420092009ADFF820C12A0056
:101A400092085CF822705FF00F0E15F00302D2B21C
:101A500092001EFA02FE37EA0E07DFF804219042D8
:101A600001D100262EE0DFF8FC20904201D10126B2
:101A700028E03D4A904201D1022623E03B4A9042B1
:101A800001D103261EE03A4A904201D1042619E012
:101A9000384A904201D1052614E0374A904201D1DC
:101AA00006260FE0354A904201D107260AE0344A63
:101AB000904201D1082605E0324A904201D1092620
:101AC00000E00A26F6B215F00302D2B29200964068
:101AD00037432A0092084CF822702B4E3268A243FA
:101AE000D1F804C05FEACC3C00D522433260274FD6
:101AF0003E68A643D1F804C05FEA8C3C00D526437B
:101B00003E60234F3A68A243D1F804C05FEACC2C70
:101B100000D522433A601F4F3E68A643D1F804C067
:101B20005FEA8C2C00D526433E606D1CF2E6BDE8D2
:101B3000F1811300DBB2002B03D00B009BB2836159
:101B400003E00B009BB21B048361704743690A00EA
:101B500092B2534043617047443802400838014014
:101B6000000002400004024000080240000C024055
:101B7000001002400014024000180240001C024005
:101B80000020024000240240003C0140043C01408F
:101B9000083C01400C3C014010B410F00703DFF892
:101BA000304122684FF6FF010A40DFF8281151EA60
:101BB00003210A43226010BC7047DFF8140100685B
:101BC000C0F302207047010049B2002909D4012264
:101BD00010F01F018A40404903005BB25B0941F8E5
:101BE0002320704710B4020052B2002A05D40A0123
:101BF0003A4B040064B21A5508E00A01384B04005D
:101C000064B214F00F04234403F8042C10BC704792
:101C100070B4030013F00704D4F10700052801D3C2
:101C2000042001E0D4F10700251D072D01D2002575
:101C300000E0E51E012616FA00F0401E0140A94012
:101C400016FA05F56D1E2A401143080070BC704756
:101C500010B50400601EB0F1807F01D301200EE0BA
:101C6000601E204908600F215FF0FF30FFF7BAFFC8
:101C700000201D49086007201C490860002010BD95
:101C800010B504002000FFF787FF10BD2DE9F041DB
:101C900004000D0016000027FFF78FFF804632007A
:101CA00029004046FFF7B4FF0100200040B2FFF7D3
:101CB00099FFBDE8F08110B50400200040B2FFF7A5
:101CC00082FF10BD10B504002000FFF7C1FF10BD5A
:101CD0000CED00E00000FA0500E100E000E400E0A7
:101CE00018ED00E014E000E018E000E010E000E093
:101CF00001480068704700BF4402002080B50B48CF
:101D0000016851F400710160016851F48061016063
:101D1000016851F4807101600320FFF7B1FF0F20CB
:101D200000F0D4FC00F004F8002002BD003C0240AA
:101D3000704730B4002513E050F8042BD30744BF9C
:101D4000A9F101039A18091F042942F8045BFAD289
:101D500013468C0744BF15809B1CC90748BF1D70E4
:101D600050F8041B0029E7D130BC704770B586B02D
:101D700004002000C0B200280DD100200090DFF840
:101D8000E800016851F040010160006810F0400077
:101D90000090009810E02000C0B201280CD1002073
:101DA0000090DFF8C400016851F040010160006854
:101DB00010F0400000900098DFF8B0502000C0B252
:101DC00035F81000019001200290012003900220BC
:101DD0000490DFF89C6001A92000C0B256F82000F2
:101DE000FFF792FD00222000C0B235F8101020004D
:101DF000C0B256F82000FFF79CFE06B070BD10B5CB
:101E000004000122DFF864002100C9B230F811108B
:101E1000DFF85C002300DBB250F82300FFF789FEF7
:101E200010BD10B504000022DFF840002100C9B247
:101E300030F81110DFF838002300DBB250F823002F
:101E4000FFF777FE10BD10B50400DFF82000210079
:101E5000C9B230F81110DFF818002200D2B250F8E1
:101E60002200FFF773FE10BD30380240F82B000847
:101E7000200000202DE9FC410400002C01D10120AC
:101E8000A2E12078C0075CD5DFF84003016811F0BB
:101E90000C01042909D0006810F00C0008280ED1AC
:101EA000DFF82C030068400209D5DFF8280300683A
:101EB000800346D56068002843D1012084E1606832
:101EC000B0F5803F06D1DFF80C03016851F4803192
:101ED000016017E06068B0F5A02F0AD1DFF8F402C6
:101EE000016851F480210160016851F48031016082
:101EF00008E0B848016831F480310160016831F4CC
:101F000080210160606800280DD0FFF7F1FE050018
:101F1000B0480068800314D4FFF7EAFE401B652830
:101F2000F6D3032050E1FFF7E3FE0500A94800685F
:101F3000800306D5FFF7DCFE401B6528F6D303209F
:101F400042E1207880074BD5A048016811F00C0FC2
:101F500008D0006810F00C00082814D19C480068D4
:101F6000400210D49B480168890704D5E168012923
:101F700001D0012028E1016831F0F801226951EA1D
:101F8000C20101602CE0E068002818D001209249CD
:101F90000860FFF7ADFE05008E480168890706D48A
:101FA000FFF7A6FE401B0328F6D303200CE10168CF
:101FB00031F0F801226951EAC201016010E000200D
:101FC00085490860FFF794FE050082480068800795
:101FD00006D5FFF78DFE401B0328F6D30320F3E060
:101FE0002078000724D56069002810D001207B49A3
:101FF0000860FFF77DFE050079480068800717D468
:10200000FFF776FE401B0328F6D30320DCE0002018
:1020100072490860FFF76CFE050071480068800790
:1020200006D5FFF765FE401B0328F6D30320CBE05F
:102030002078400775D500266A4F3868C0000CD458
:1020400000200090386850F080503860386810F0F8
:1020500080500090009801200600DFF88C81D8F8AD
:102060000000C00513D4D8F8000050F48070C8F800
:102070000000FFF73DFE0500D8F80000C00506D4BB
:10208000FFF736FE401B0328F6D303209CE0A06830
:10209000012805D15548016851F00101016015E0A2
:1020A000A068052809D15148016851F00401016078
:1020B000016851F00101016008E04C4801684908DD
:1020C00049000160016831F004010160A068002846
:1020D0000FD0FFF70DFE050044480068800718D4B4
:1020E000FFF706FE401B41F289318842F4D30320FA
:1020F0006AE0FFF7FDFD05003C480068800708D551
:10210000FFF7F6FD401B41F289318842F4D30320EA
:102110005AE03000C0B2012803D1386830F0805056
:102120003860A06900284ED02848006810F00C00E4
:10213000082846D0A069022832D12D4E00203060F8
:10214000FFF7D6FD0700DFF88C80D8F8000080018B
:1021500006D5FFF7CDFDC01B0328F4D3032033E0E1
:10216000E169206A0143606A51EA8011A06A40086F
:10217000401E51EA0041E06A51EA006114480160E2
:1021800001203060FFF7B4FD0500D8F800008001A1
:1021900019D4FFF7ADFD401B0328F6D3032013E04D
:1021A000002013490860FFF7A3FD050009480068F7
:1021B000800108D5FFF79CFD401B0328F6D30320C0
:1021C00002E0012000E00020BDE8F681083802406E
:1021D000043802400038024000004742800E474267
:1021E00074380240403802400070004070380240AD
:1021F000600047427CB50024002000901948016827
:1022000051F080510160006810F0805000900098FB
:10221000012015490860FFF76BFD0500104C206890
:10222000C00308D4FFF764FD401B40F2E931884247
:10223000F4D3032012E001200C490860FFF758FD99
:1022400006002068800308D4FFF752FD801B40F28F
:10225000E9318842F5D3032000E0002076BD00007C
:10226000047000404038024040000E4244000E42DC
:1022700070B50400FFF73CFD0500260016F1010FC4
:1022800002D0044800783618FFF732FD401BB042F8
:10229000FAD370BD3000002070B5C51DED08AFF356
:1022A0000080ED00072D98BF08250C4E346814B14E
:1022B0002068A84208D200F047FB00283060F4D123
:1022C000AFF30080002070BD6119451B14BF0D6085
:1022D00000213160AFF30080204670BD480200202D
:1022E0002DE9F84F82460E0014001D005FF0010B2F
:1022F000DFF80072387E012801D1022038E0012089
:1023000038764CF25038404600F04FF88146484647
:10231000C0B2002828D1BAF1000F05D12100C9B2FE
:10232000300000F09BF815E0BAF1010F05D1210053
:1023300089B2300000F083F80CE0BAF1020F04D14A
:102340002100300000F06CF804E022002B00300087
:1023500000F053F8404600F028F88146DFF8980175
:102360000168490849000160002038764846C0B23B
:10237000BDE8F28F002060490A68002A09D5604A4A
:10238000604B1360604B13600968002901D501217F
:102390000800C0B270475848016851F00041016020
:1023A000002070475348C069704770B5040000268C
:1023B00000205049C861FFF79BFC05004F480168A9
:1023C000C9030BD514F1010FF8D0002C04D0FFF78E
:1023D0008FFC401B8442F1D203200DE00168C90745
:1023E00001D501210160006810F4F97F03D000F0ED
:1023F00042F8012000E0002070BD10B43E490C6896
:1024000034F440740C600C6854F440740C600C6834
:1024100054F001040C600260011D0B6010BC704799
:10242000354A136833F440731360136853F4007330
:102430001360136853F001031360016070472E4A64
:10244000136833F440731360136853F4807313609C
:10245000136853F00103136001807047264A136824
:1024600033F44073136013681360136853F001036F
:1024700013600170704721480168C90606D51D49DF
:10248000CA6952F01002CA61102101600168890610
:1024900006D51849CA6952F00802CA6120210160B4
:1024A0000168490606D51349CA6952F00402CA6197
:1024B000402101600168090606D50E49CA6952F03B
:1024C0000202CA61802101600168C90507D5094976
:1024D000CA6952F00102CA614FF48071016001685B
:1024E000890706D50349CA6952F02002CA61022150
:1024F00001607047F4010020103C02400C3C024097
:10250000043C024023016745AB89EFCD2DE9F0473C
:1025100004000D005FF0010A0026DFF8A071387E8C
:10252000012801D1022046E0012038764CF25039D2
:102530004846FFF73AFF80464046C0B2002836D1F1
:102540005FF0FF3028602068012810D161682069A1
:10255000C0B200F032F84846FFF727FF8046DFF8A8
:1025600060110A68DFF85C0102400A601DE0A068A3
:102570000600E168A06841188E4216D22169C9B2EE
:10258000300000F03FF84846FFF70FFF8046DFF8C5
:102590003001016831F0FA0101604046C0B2002804
:1025A00001D02E6001E0761CE3E700F05FF8002028
:1025B00038764046C0B2BDE8F08710B4DFF800219D
:1025C000136833F440731360032906D1136843F48E
:1025D000004353F0040313600AE0012904D1136897
:1025E00053F00403136003E0136853F400431360D3
:1025F00013680400E4B2240254F4803423431360CB
:1026000010BC704730B400220B00DBB2002B01D1AC
:1026100000230FE00B00DBB2012B02D14FF48073DB
:1026200008E00B00DBB2022B02D14FF4007301E093
:102630004FF440730C2800D3001DDFF88420146889
:1026400034F44074146014681C431460146834F04B
:10265000F80414601468C50055F002052C4314609A
:10266000146854F48034146030BC70471648016814
:1026700089050FD5016831F400710160016851F4DA
:1026800000610160016831F400610160016851F48A
:1026900000710160016849050FD5016831F480615E
:1026A0000160016851F480510160016831F480518A
:1026B0000160016851F4806101607047F4010020FD
:1026C000103C0240FB7FFFFF003C024010B50400BD
:1026D0004FF47A700D490978B0FBF1F00C490968A4
:1026E000B1FBF0F0FFF7EEFA002801D001200CE07A
:1026F000102C09D2002221005FF0FF30FFF7C6FA4C
:1027000004480460002000E0012010BD30000020DB
:102710002C00002028000020BBBBE1B1B2F5803FB7
:1027200080F07E80022A1ED98C46B1FBF2F102FBBA
:1027300011C31B0443EA1043B3FBF2FC02FB1C333E
:1027400080B240EA0343B3FBF2F002FB103240EAEE
:102750000C4000237047022A05D98446B0FBF2F0F2
:1027600002FB10C270474AB105D100F001024908CE
:102770005FEA3000704700220023704700F0FAB88B
:102780000B000200002100207047904271EB030C07
:10279000F6D3B3F5803F2FD2F0B5B3FA83F7B1FA91
:1027A00081F4A7F10F0E3D1B5340CEF1200602FA33
:1027B0000EF2F3415340B5F10F0746D80F3C2C44BD
:1027C0004140C4F12006A040F1414140B1FBF3F685
:1027D00003FB1611A2FB0645001BA94102D2761E7F
:1027E0008018594180EA010221FA0EF362FA0EF2D2
:1027F00000215A403046F0BD30B4B1FBF3FC03FB7E
:102800001C11A2FB0C45001BA94103D2ACF1010C29
:102810008018594130BC02460B4660460021704783
:10282000B2F1807F65D3F0B5B2FA82F7B1FA81F4E4
:10283000C7F10F063D1B22FA06F307F1110EF24114
:1028400020355A40B5F10F07B8D94140C4F12006F0
:10285000A040F1414140B1FBF3FC03FB1C11A2FB82
:102860000C45001BA94103D2BCF1010C8018594151
:102870000F2F12D30F3FC90341EA5041B1FBF3F6CA
:1028800003FB1611A2FB0645D4EBC030A94102D2CE
:10289000761E8018594146EACC3C07B34140C7F147
:1028A0002006B840F1414140B1FBF3F603FB16119D
:1028B000A2FB0645001BA94102D2761E8018594191
:1028C00080EA010221FA0EF3C7F1200462FA0EF247
:1028D0000CFA07F05A402CFA04F13043F0BD80EABC
:1028E000010221FA0EF3002162FA0EF260465A400C
:1028F000F0BD8C46B1FBF2F102FB11C31B0243EAAF
:102900001063B3FBF2FC02FB1C331B024CEA0020F9
:1029100043EA1063B3FBF2FC02FB1C331B024CEADC
:10292000002043EA1063B3FBF2FC02FB1C331B02E2
:102930004CEA002043EA1063B3FBF2FC02FB1C32BA
:102940004CEA0020002370470749086808B10020BE
:1029500070470648C008C00008600549C908C9009A
:10296000091A0160704700BF4C0200205F0200207E
:1029700058220020704700000F48016851F4700190
:1029800001600E49086850F00100086000200C4A00
:1029900010600A680B4802400A600B480B4A10603E
:1029A000086830F4802008600020094908605FF062
:1029B000006008490860704788ED00E00038024078
:1029C00008380240FFFFF6FE1030002404380240B1
:1029D0000C38024008ED00E07047FEE7FEE7FEE736
:1029E000FEE770477047704780B500F015F801BDED
:1029F00080B50848406BFEF798F901BD80B50548E1
:102A0000006BFEF792F901BD80B50248FDF7AFFCFF
:102A100001BD0000F400002003480168034A127859
:102A200089180160704700BF440200203000002078
:102A300030B450F8041B79B102684368024408308E
:102A4000DC0744BFA9F10104E31852F8045B43F822
:102A5000045B091FF9D1ECE730BC704710B507499A
:102A600079441831064C7C44163404E00A68081D89
:102A7000114488470146A142F8D110BD2C00000046
:102A80004C0000004EF68851CEF20001086840F478
:102A900070000860BFF34F8FBFF36F8F4FF000706F
:102AA000E1EE100A704700008BF2FFFF20020000E9
:102AB000340000200000000079FFFFFF3400000018
:102AC00098020000000000200000000000F00DF857
:102AD000002801D0FFF7C2FFAFF300800020AFF362
:102AE0000080FEF7ABFA00F002F80120704700F01A
:102AF00001B800000746384600F002F8FBE7000086
:102B000080B5AFF30080024A11001820ABBEFBE78E
:102B10002600020053657276657220697320726523
:102B20006164790A0000000052656369657665207A
:102B30006D6173736167653A20000000436C6561E5
:102B40007220536563746F720000000057726974DD
:102B50006520536563746F72000000000000000080
:102B6000000000000102030406070809014880472D
:102B70000148004779290008AD2B0008436C6561C6
:102B80007220416C6C000000436C656172205061E2
:102B9000676500005265616420464C41534800005F
:102BA000577269746520506167650000AFF300805B
:102BB000FFF768FFFFF78AFF000000000000000039
:102BC000434C4F4B0000000043534F4B00000000AC
:102BD000524452560000000057524F4B0000000074
:102BE000454F575200000000000610160006101650
:102BF000000000000102030400200040FFF7FEBFB8
:102C0000FFF7FEBFFFF7FEBFFFF7FEBFFFF7FEBFF8
:102C1000FFF7FEBFFFF7FEBFFFF7FEBFFFF7FEBFE8
:102C2000FFF7FEBFFFF7FEBFFFF7FEBFFFF7FEBFD8
:102C3000FFF7FEBFFFF7FEBFFFF7FEBFFFF7FEBFC8
:102C4000FFF7FEBFFFF7FEBFFFF7FEBFFFF7FEBFB8
:102C5000FFF7FEBFFFF7FEBFFFF7FEBFFFF7FEBFA8
:102C6000FFF7FEBFFFF7FEBFFFF7FEBFFFF7FEBF98
:102C7000FFF7FEBFFFF7FEBFFFF7FEBFFFF7FEBF88
:102C8000FFF7FEBFFFF7FEBFFFF7FEBFFFF7FEBF78
:102C9000FFF7FEBFFFF7FEBFFFF7FEBFFFF7FEBF68
:102CA000FFF7FEBFFFF7FEBFFFF7FEBFFFF7FEBF58
:102CB000FFF7FEBFFFF7FEBFFFF7FEBFFFF7FEBF48
:102CC000FFF7FEBFFFF7FEBFFFF7FEBFFFF7FEBF38
:102CD000FFF7FEBFFFF7FEBFFFF7FEBFFFF7FEBF28
:102CE000FFF7FEBFFFF7FEBFFFF7FEBFFFF7FEBF18
:102CF000FFF7FEBFFFF7FEBFFFF7FEBFFFF7FEBF08
:102D0000FFF7FEBFFFF7FEBFFFF7FEBFFFF7FEBFF7
:102D1000FFF7FEBFFFF7FEBFFFF7FEBFFFF7FEBFE7
:102D2000FFF7FEBFFFF7FEBFFFF7FEBFFFF7FEBFD7
:102D3000FFF7FEBFFFF7FEBFFFF7FEBFFFF7FEBFC7
:102D4000FFF7FEBFFFF7FEBFFFF7FEBFFFF7FEBFB7
:102D5000FFF7FEBFFFF7FEBF142B00087C2B000817
:102D60003C2B0008882B0008942B00084C2B0008F3
:102D7000A02B0008282B0008001802400018024071
:0C2D8000100000000024F400010000001E
:0400000508002BAD17
:00000001FF
