:020000040800F2
:1000000058060020E91A0008F5190008F719000839
:10001000F9190008FB190008FD190008000000008C
:10002000000000000000000000000000FF190008B0
:10003000011A000800000000031A0008051A000851
:100040000D1B0008111B0008151B0008191B0008D8
:100050001D1B0008211B0008251B0008291B000888
:100060002D1B0008311B0008351B0008391B000838
:100070003D1B0008411B0008451B0008491B0008E8
:100080004D1B0008511B0008551B0008591B000898
:100090005D1B0008611B0008651B0008691B000848
:1000A0006D1B0008711B0008751B0008791B0008F8
:1000B0007D1B0008811B0008851B0008891B0008A8
:1000C0008D1B0008911B0008951B0008991B000858
:1000D0009D1B0008191A0008A11B0008A51B000899
:1000E000A91B0008AD1B0008B11B0008B51B0008C8
:1000F000B91B0008BD1B0008C11B0008C51B000878
:10010000C91B0008CD1B0008D11B0008D51B000827
:10011000D91B0008DD1B0008E11B0008E51B0008D7
:10012000E91B0008ED1B0008F11B0008F51B000887
:10013000F91B0008FD1B0008011C0008051C000835
:10014000091C00080D1C0008111C0008151C0008E3
:10015000091A0008191C0008111A00081D1C0008C3
:10016000211C0008251C0008291C00082D1C000863
:10017000311C0008351C0008391C00080000000074
:100180003D1C0008411C0008451C0008491C0008D3
:100190004D1C0008511C0008551C0008591C000883
:1001A0005D1C0008611C0008651C000838B50400CF
:1001B00001D1012032BD00F021F808B900F022F889
:1001C00000F012F800F023F8FFE7416100F001F8B9
:1001D00032BD2068C16841F40051C16000206860F0
:1001E00020216970A9707047242068702068C16858
:1001F00021F40051C160204600F006BA04F1380530
:100200006878704700212970204600F0C1BA206844
:10021000016921F4904101612068416921F02A01BE
:10022000704770B5044604F13805134668782028F5
:1002300031D109B1180001D1012070BD2878012801
:1002400029D0012028702162A384E3840020686003
:1002500021226A700FF23120226BD063226B0FF2E1
:1002600055201064226B0FF29520D0640020266B7D
:1002700030652068021D206B00F0ADFB21686FF037
:100280004000086000222A702068416941F0800126
:100290004161002070BD022070BD7CB5044604F1B0
:1002A00038051346A87820283ED109B1180001D19D
:1002B000012076BD2878012836D001202870A1625F
:1002C000A38500226A602220A8700026606B0FF2CE
:1002D000ED12C263606B0FF21D220264606B0FF2BD
:1002E0001D22C2640A46606B06652668606B311D7C
:1002F00000F071FB0020009021680A680092002243
:100300004B68009300982A70CB6843F48073CB60ED
:100310002068416941F0010141612068416941F073
:1003200040014161002076BD022076BD416921F087
:1003300040014161606B704738B504462568296803
:10034000EA686B6911F00F0007D188065DD5930646
:100350005BD52046BDE8324012E1D80702D412F442
:10036000907F52D0C80705D5D50503D5E06B40F086
:100370000100E063480705D5DD0703D5E06B40F0D9
:100380000200E063880705D5DD0703D5E06B40F088
:100390000400E063080705D5DB0703D5E06B40F0F8
:1003A0000800E063E06B00286CD0880604D5910655
:1003B00044BF204600F0E4F820684069E16B0A077A
:1003C00001D440061BD5204600F0C6F820684169DC
:1003D0004A060FD5FFF7AAFF60B10FF29911016528
:1003E000606B00F02EFB00284CD0606B016DBDE807
:1003F000344008472046BDE8324000F0EDBC2046BE
:1004000000F0EAFC0020E06331BD08062AD513069F
:1004100028D594F83900212834D1A068B0F5805F40
:10042000206A0BD10188C1F30801696020690028A6
:10043000206A0CBF811C411C216203E0411C216227
:1004400000786860E08C401EE08480B2D0B92068FB
:10045000C16821F08001C1602068C16841F040019D
:10046000C16031BD48060DD551060BD5E86820F0B6
:100470004000E860202184F839102046BDE8324071
:1004800000F098BC31BD0000816B00680268D305A4
:1004900044BF084600F08EBC0020C884086842694A
:1004A00022F0800242610868C16841F04001C160E9
:1004B00070470000806B00F095BC0000816B006805
:1004C0000268D30513D40020C8850868C26822F4E6
:1004D0008072C2600868426952085200426108682E
:1004E000426922F040024261202081F83A00084629
:1004F00000F062BC806B00F076BC000038B5846B05
:100500002068406904F139052978212906D10106BE
:1005100004D50022E284204600F015F821684869DD
:100520006978222906D1400604D50021E1852046BC
:1005300000F012F8E06B40F01000E0632046BDE8E8
:10054000324000F049BC0168CA6822F0C002CA60AB
:10055000202180F8391070470168CA6822F490722F
:10056000CA6001684A69520852004A61202180F835
:100570003A107047806B0021C185C18400F02CBC0B
:1005800080B590F83A1022293CD18168B1F5805F9E
:1005900012D101690368826A0029596805D1C1F343
:1005A00008011180826A911C04E001F0FF011180B2
:1005B000826A511C81620FE001690029816A04D1BD
:1005C0004A1C826203685A6805E04A1C826203681A
:1005D0005A6802F07F020A70C18D491EC18589B236
:1005E00071B90168CA6822F49072CA6001684A69E8
:1005F000520852004A61202180F83A1000F0DCFBDA
:10060000002002BD022002BD2DE9F047044664250A
:1006100022681169E06821F44051014311611926F3
:10062000D3684948A168034020690B4361690343CB
:10063000E0690B430343D3605169A06921F4407121
:1006400001435161E36941484149B3F5004F3BD152
:100650008A4218BF82420ED100F053FC074600F0D8
:1006600050FC804600F04DFC814600F04AFC82467A
:1006700000F047FC0DE000F03CFC074600F039FCC0
:10068000804600F036FC814600F033FC824600F0E4
:1006900030FC6168490000F06CF8AE46BCFBFEFE21
:1006A00005FB1E77FF0032376423B7FBF3F35B00D3
:1006B00003F4F87300F04EF8ED0032356420B5FB1A
:1006C000F0F000F0070039E08A4218BF82420ED1F4
:1006D00000F017FC074600F014FC804600F011FC07
:1006E000814600F00EFC824600F00BFC0DE000F0AD
:1006F00000FC074600F0FDFB804600F0FAFB814657
:1007000000F0F7FB824600F0F4FB6168890000F01E
:1007100030F8AE46BCFBFEFE05FB1E773F013237CC
:100720006423B7FBF3F303F0F00300F013F82D019B
:1007300032356420B5FBF0F000F00F002168C318DB
:100740008B60BDE8F0870000F369FFFF00140140F3
:100750000010014003EB021306FB0AF74643B7FB08
:10076000F1F2B6FBF1F06421B0FBF1F105FB1125CC
:1007700070477743B7FBF1F36422B3FBF2F206FB59
:1007800008F3B3FBF1F706FB09F3B3FBF1FC704789
:100790002DE9F04786B00446002000904FF48065B4
:1007A0004D484E4E0168DFF8388141F0010101608B
:1007B0004FF00067026802F00102009200220099E7
:1007C00000924FF40009036843F0010303604FF403
:1007D000001A016801F0010100910099009241693D
:1007E00041F010014161416901F01001009100994F
:1007F00000924FF40071036843F480030360022207
:10080000006800F48000009000980191029200219D
:100810000391049207210591304601A900F0B8FB2D
:1008200007210591019501A9304600F0B1FB2D4E3D
:1008300008F13000306077600020F0607061B061D6
:10084000F0613062706240210320B062B1603561B6
:10085000C6F82C90C6F830A0304600F045F8266364
:100860004FF40031B463C6F8608077663567C6F828
:10087000801006F184050020B066F0667067B067EE
:10088000F067286003216960C5F80890C5F80CA0DE
:1008900006F1600000F028F806F1600060636C610A
:1008A00001220021462000F091FC462000F0ABFC24
:1008B00000220021442000F089FC442000F0A3FC29
:1008C00000220021252000F081FC252000F09BFC67
:1008D00006B0BDE8F087000030380240000002405A
:1008E000886402409801002070B5044600F0B6FC10
:1008F00006460CB9012070BD04F1340500202870B3
:100900000221697020680268520852000260226861
:100910001068C10722D500F0A1FC801B0628F6D381
:100920002020286203216970032070BDB0F5005FAC
:1009300009D1032E42D8DFE806F00C0A0C02B1F10F
:10094000C07F3BD105E0022E03D9F61E36D1C80187
:1009500034D5402129620120687070BD1368DFF82A
:100960009C0261680340A0680B43E168034320696F
:100970000B4361690343A0690B43E1690343206AA8
:100980000B43616A0343042903D1E16A206B0143ED
:100990000B43136023685A69606AD208042840EA4E
:1009A000C2020BD1A66AE16A324339B1A0690028BC
:1009B000BCD1002E18BF022EC9D0C0D35A61204628
:1009C00000F03AF9A96A3F228A408260002028623A
:1009D0000121697070BDF8B5044604F134060025A4
:1009E0003078776A012801D10220F2BD01203070F1
:1009F0007078012821D1022070703562204600F005
:100A00000BF9B06A3F2101FA00F0B8602068016874
:100A100041F0160101602068416941F080014161A7
:100A2000F06820B12068016841F008010160206889
:100A3000016841F00101016001E03570022528469E
:100A4000F2BD90F83510022903D0802242650120C2
:100A50007047052180F8351000680268520852007E
:100A60000260002070472DE9FC41044604F1340681
:100A70000020634900904FF41650776A0A683D6879
:100A8000B2FBF0F8B06A082100F0BDF80ED0206883
:100A9000026853070AD5026822F004020260B06AB5
:100AA0008140B960316A41F001013162B06A25FAD2
:100AB00000F1CA070BD521684A69110607D5012242
:100AC00002FA00F0B860306A40F00200306204219F
:100AD00000F098F808D021680A68930704D5B86038
:100AE000306A40F004003062102100F08BF819D019
:100AF00021680A68130715D5B860206801684A03A1
:100B000007D50068010309D5716959B120468847A6
:100B100008E00168CA0501D400F079F8F16809B16C
:100B200020468847B06A202100F06DF843D0216844
:100B30000A68D3063FD5B86020687178052920D1AE
:100B4000026822F0160202602068416921F08001EB
:100B50004161F068002804BF7069002802D0206855
:100B600000F055F83F22B06A8240BA60002131702F
:100B700001227270F16900293CD02046BDE8FC4199
:100B8000084701684A0307D5006801030FD431699B
:100B900089B1204688470EE00168CA0507D401687C
:100BA00021F0100101600020307001227270B168E4
:100BB00009B120468847306AE0B1306AC10713D5D1
:100BC000052070702068016849084900016000989C
:100BD000401C8045009003D320680168CA07F6D402
:100BE0000020307001217170B16919B12046BDE853
:100BF000FC410847BDE8F381000000003F8010F091
:100C000094010020B06A01FA00F0054270470168C3
:100C100021F008010160704730B50468256825F4AB
:100C20008025256063608068402802D1A260E16071
:100C300030BDA160E26030BD30B5016808A401F0AC
:100C4000FF02103A1823B2FBF3F2890A8902A55C6D
:100C5000C565042A28BF091D8165084630BD00000E
:100C6000000610160006101638B592B000F0FCFA17
:100C7000002000F051FB012000F04EFB002000900E
:100C80004FF480335048016841F0805101600021E9
:100C9000006800F08050009000984C480091026875
:100CA00042F4404202600122006800F4404000909B
:100CB00006A80099069202214FF480020C910D9231
:100CC00008214FF4B4720E910F920221072207936C
:100CD0001091119200F0ECFB08B100F07EF800F0EA
:100CE00063FD02210291002203920F204FF4A051D4
:100CF000019004914FF480520592052101A800F063
:100D000073F808B100F069F8314C324860604FF474
:100D100016510020E0606061A1600C200021A061FC
:100D20002161E1612162201DFFF740FA08B100F066
:100D300054F80021002000F046FB002000F083FB67
:100D40000028FAD0992204F14401201DFFF769FA26
:100D500008B100F042F800F027F8002000F018FB7E
:100D600004F1E00599222946201DFFF796FA08B103
:100D700000F033F800F018F8992004F1440102461D
:100D8000501E92B24AB111F8012B15F8013B9A425C
:100D9000F5D080B208B100F020F8002000F009FB87
:100DA000282000F03DFDF8E720780128FCD1002143
:100DB0002170704701E0000000BF05490120087064
:100DC000002000F0DDBA0000403802400070004012
:100DD0000000002000100140F2E780B5012000F083
:100DE000CFFAFEE7704770472DE9F04104000F4647
:100DF00077D0494E306800F00F00B84202D200F0C0
:100E000072F86ED12068454D810712D5400703D591
:100E1000A96841F4E051A9602078010703D5A868CA
:100E200040F46040A860A968A06821F0F001014387
:100E3000A9602178C8074CD56068012802D12968CB
:100E40008A0305E0022818BF032803D129688A0114
:100E500003D446E029688A0743D5A968890840EA8F
:100E60008100A86000F0FAF98046A868616800F087
:100E70000C00B0EB810F2CD000F0F0F9A0EB0800D3
:100E800041F289318842F0D3032020E020784107E5
:100E900005D5AA68E06822F4E0520243AA602178EE
:100EA000080706D5A968206921F4604141EAC0011C
:100EB000A96000F03DF8AA6819491A4BC2F3031261
:100EC000895CC84018600F2000F0BEFC0020BDE81F
:100ED000F081306800F00F008742D7D200F003F8AD
:100EE000D4D00120F3E73770316801F00F01B94227
:100EF00070470C480C4A006813680C49C3F38222FF
:100F000006E00848084A006813680849C3F34232FB
:100F1000895CC84070470000003C02400038024035
:100F2000E41900089401002008380240041B00085E
:100F300030B5144C606800F00C00042802D008287A
:100F400002D01DE0104830BD226820680023410215
:100F500002F03F0204D525680B49C5F3881003E071
:100F600020680A49C0F38810A1FB000100F08CFC46
:100F70002168C1F30141491C4900B0FBF1F030BDCB
:100F8000024830BD0438024000127A000024F40008
:100F90002DE9F84702460B46002472480F2101272D
:100FA0001D68A74007EA0508B84540F0C7805D689E
:100FB000022D18BF122D4FEA840911D1E50802EB6A
:100FC000850C09F01C05DCF820E0D3F810A001FA2C
:100FD00005F62EEA06060AFA05F53543CCF8205048
:100FE0004FEA440C0326156806FA0CF66FEA060E63
:100FF0001E7906F003060EEA050506FA0CF63543DF
:1010000015605D68012D18BF022D03D0112D18BF8A
:10101000122D10D19568DE680EEA050506FA0CF669
:1010200035439560556825EA07075D68C5F30015E7
:10103000A5402F435760D7680EEA07059F6807FA57
:101040000CF63543D5605D68EF0077D50025009537
:1010500009F00C090768444E47F48047076001FA1D
:1010600009FE056805F480450095009FA70856F81D
:10107000275025EA0E0E3D4DAA4208BF00252CD070
:101080003B4DAA4208BF012527D03A4DAA4208BFCE
:10109000022522D0384DAA4208BF03251DD0374D66
:1010A000AA4208BF042518D0354DAA4208BF05251D
:1010B00013D0344DAA4208BF06250ED0324DAA42A5
:1010C00008BF072509D0314DAA4208BF082504D022
:1010D0002F4DAA420CBF09250A2505FA09F545EA54
:1010E0000E0546F827506FEA08072A4E356807EACA
:1010F000050C5D68ED0348BF48EA0C0CC6F800C05B
:10110000756807EA050C5D68AD0348BF48EA0C0C3A
:10111000C6F804C0B56807EA050C5D68ED0248BF73
:1011200048EA0C0CC6F808C0F56807EA050C5F68C9
:10113000BD0248BF48EA0C0CC6F80CC0641C0F2C5A
:101140007FF62DAFBDE8F1870069084018BF012088
:10115000C0B2704702B909048161704742695140C9
:1011600041617047443802400838014000000240A5
:101170000004024000080240000C0240001002403F
:101180000014024000180240001C024000200240EF
:1011900000240240003C01400901020002D4294819
:1011A00081547047284B02F00F021A4402F8041CC5
:1011B0007047264B19684FF6FF020002114000F4F9
:1011C000E0600843224908431860704738B51F4B58
:1011D0001C68C4F30223C3F10704052C28BF0424B0
:1011E0001D1D072D34BF0023DB1E012505FA04F465
:1011F000641E2140994005FA03F35B1E1A40114317
:10120000BDE83440C8E7010007D4012200F01F0107
:10121000104B8A40400943F82020704710B5401E0B
:10122000B0F1807F01D3012010BD0B4C60600F2115
:101230004FF0FF30FFF7B0FF0021A16007202060D2
:10124000002010BD00E400E018ED00E00CED00E02F
:101250000000FA0500E100E010E000E0014840680D
:10126000704700BF8801002080B50B48016841F439
:1012700000710160026842F480620260016841F41A
:10128000807101600320FFF794FF0F2000F0DCFA6B
:1012900000F004F8002002BD003C02407047F0B4AA
:1012A0000246106895681318506803EB5004C00795
:1012B0001DD54D441BE013F8017B05F8017B491E49
:1012C000F9D1A0B1B60813F8011B06F00306032EEE
:1012D00008BF13F8016B01EB06214942801C294429
:1012E00005D011F8016B05F8016B401EF9D1A3423E
:1012F0000ED013F8016B16F0030104BF13F8011BA5
:10130000C91C30090F28DAD113F8010B0F30D6E7CA
:10131000F0BC02F10C00704770B50446210086B0A5
:10132000DFF8380106D100220092016841F0400147
:10133000016007E0012C0AD100210091026842F00F
:1013400040020260006800F04000009000980FF238
:101350001C11DFF80C6131F8145001950121029144
:1013600003910221049101A956F82400FFF710FE11
:1013700056F8240000222946FFF7ECFE06B070BDA7
:1013800010B500F00DF8BDE810400122FFF7E2BEF5
:1013900010B500F005F8BDE810400022FFF7DABEF6
:1013A0000FF2C803DFF8B84033F8101054F82000EB
:1013B00070470FF2B802DFF8A83032F8101053F877
:1013C0002000FFF7CBBE10B5040086B00CD1002082
:1013D0000090DFF88800026842F0010202600068B5
:1013E00000F0010000900098DFF878200FF28000F4
:1013F0000B000AD130F8141001910023022102934E
:101400000391049100F01AF816E0012914D130F884
:101410001400DFF85430019000210391029300F092
:101420000DF80FF25000045D00220F2160B2FFF7AB
:10143000CDFE60B2FFF7E7FE06B010BD01A952F87D
:101440002400FFF7A5BD0FF22802DFF8183032F8AC
:10145000101053F82000FFF777BE0000303802402C
:101460007C010020840100200000111000200040B9
:1014700001000000060030B4002513E050F8042BF2
:10148000D30744BFA9F101039A18091F042942F8A0
:10149000045BFAD213468C0744BF15809B1CC90716
:1014A00048BF1D7050F8041B0029E7D130BC7047BD
:1014B0002DE9F843040017D02078B74EC10745D571
:1014C000B06800F00C00042807D0B06800F00C00F1
:1014D00008280BD17068410208D53068810335D5E2
:1014E0006068002840F0BA80012053E16068B0F5E0
:1014F000803F04D1306840F48030306011E0B0F5B6
:10150000A02F306806D140F480203060316841F46B
:10151000803105E020F480303060316821F4802192
:101520003160606868B1FFF799FE05463068810355
:1015300000F19480FFF792FE401B6528F6D303204C
:1015400028E1FFF78BFE05463068810340F1868075
:10155000FFF784FE401B6528F6D3F0E7FFF77EFE19
:10156000401B022840F2A780E9E7E06870B1012142
:101570003960FFF773FE05463068810700F1CB80C4
:10158000FFF76CFE401B0228F6D9D8E73860FFF75A
:1015900065FE05463168880763D5FFF75FFE401B8F
:1015A0000228F7D9CBE70860FFF758FE0546706FB1
:1015B000810775D5FFF752FE401B0228F7D9BEE719
:1015C0000528306F06D140F004003067306F40F0DE
:1015D000010005E0400840003067306F20F0040053
:1015E000306741F28938A06868B1FFF737FE81465D
:1015F000306F810700F19C80FFF730FEA0EB0900FF
:101600004045F5D39BE7FFF729FE8146306F810700
:1016100040F18E80FFF722FEA0EB09004045F5D394
:101620008DE7FFF71BFE401B022840F2968086E7FD
:10163000FFF714FE001B022840F2A7807FE700207E
:101640003866FFF70BFE04463068810140F1A18047
:10165000FFF704FE001B0228F6D970E720784F4FF1
:1016600081071BD5B06810F00C0F09D0B06800F0EE
:101670000C0008287FF479AF706841023FF575AF20
:101680003068810703D5E06801287FF42DAF316809
:10169000206921F0F80141EAC00131602178080792
:1016A0000DD560693E4900283FF47DAF01220A60F4
:1016B000FFF7D4FD0546706F81077FF54FAF2078A7
:1016C00041073AD5306C0025C1000AD400950125A8
:1016D000316C41F080513164306C00F080500090EA
:1016E0000098DFF8C080D8F80000C1051BD4D8F8F6
:1016F000000040F48070C8F80000FFF7AFFD81469D
:10170000D8F80000C1050ED4FFF7A8FDA0EB090032
:101710000228F5D913E73068216920F0F80040EA83
:10172000C1003060BAE7A06801287FF449AF4DE7F7
:101730001DB1306C20F080503064A06948B3B168AE
:1017400001F00C0108293FF4CFAE02287FF477AFF7
:1017500000203866FFF782FD0546306881013FF5BD
:1017600060AFE269206A616A0243A06A400842EA07
:101770008112401E42EA0042E06A42EA0062726060
:1017800001213966FFF76AFD0446306881017FF563
:101790004FAF0020BDE8F28300380240000047420E
:1017A000800E474200700040F8B500F027F8012194
:1017B00000F01EF83160FFF751FD07462868C103AD
:1017C0000CD4FFF74BFDC01BA042F7D30320F2BDA2
:1017D000FFF744FD801BA04205D3F7E701207060AE
:1017E000FFF73CFD064628688103F1D50020F2BDD5
:1017F000006800F080500090009870470020009032
:1018000040F2E9340448054E0168024D41F0805130
:1018100001607047047000404038024040000E42B2
:1018200038B50446FFF71AFD14F1010F054602D042
:10183000044801786418FFF711FD401BA042FAD359
:1018400031BD00BF8801002038B50D4D0D4B2A7801
:1018500004464FF47A711868B1FBF2F2B0FBF2F073
:10186000FFF7DCFC50B9102C08D2002221464FF0C3
:10187000FF30FFF7ABFCAC60002032BD012032BD71
:101880008801002094010020D3BBD9B1B2F5803F7C
:101890005BD2022A1ED98C46B1FBF2F102FB11C3C6
:1018A0001B0443EA1043B3FBF2FC02FB1C3380B27F
:1018B00040EA0343B3FBF2F002FB103240EA0C4073
:1018C00000237047022A05D98446B0FBF2F002FBE0
:1018D00010C270474AB105D100F0010249085FEA21
:1018E0003000704700220023704700F051B80B0011
:1018F0000200002100207047F7D300220023704728
:10190000904271EB030CF2D370B5B1FA81F4B3FAE3
:1019100083F52C1BA340C4F1200532FA05F63343AE
:10192000A2405FF00046E64002E05B085FEA320258
:10193000841A71EB030524BF204629467641F4D36F
:1019400002000B003000002170BD70B5B1FA81F4C7
:10195000B2FA82F5C4F120046419B4F12006DAD396
:10196000B2405FF00044F440002502E052085FEA14
:101970003303C61A71EB020E24BF30467146644130
:101980006D41F3D302000B002000290070BD000060
:10199000704700000E48016841F4700101600022A8
:1019A0000C49086840F0010008608A600B680A482A
:1019B0000A4A03400B604A6000200B68084A23F47F
:1019C00080230B60C8604FF0006111607047000019
:1019D00088ED00E000380240FFFFF6FE10300024E2
:1019E00008ED00E000000000000000000102030418
:1019F000060708097047FEE7FEE7FEE7FEE77047C7
:101A00007047704700F00EB80548406BFFF72BB8E1
:101A10000348006BFFF727B80148FEF78DBC0000B4
:101A2000040000200248416802788A18426070472A
:101A30008801002010B5074979441831064C7C44D0
:101A4000163404E00A68081D114488470146A14283
:101A5000F8D110BD2C000000480000004EF688515F
:101A6000CEF20001086840F470000860BFF34F8FA9
:101A7000BFF36F8F4FF00070E1EE100A7047000067
:101A8000F7F9FFFFC00000009801002000000000EF
:101A90000FF8FFFFD4010000A200000000000020AA
:101AA00000F00DF8002801D0FFF7C4FFAFF300806D
:101AB0000020AFF30080FFF7D7F800F002F8012014
:101AC000704700F001B800000746384600F002F801
:101AD000FBE7000080B5AFF30080024A1100182038
:101AE000ABBEFBE7260002000148804701480047E3
:101AF00095190008F91A0008AFF30080FFF7AEFF50
:101B0000FFF7CEFF0000000001020304FFF7FEBF55
:101B1000FFF7FEBFFFF7FEBFFFF7FEBFFFF7FEBFF9
:101B2000FFF7FEBFFFF7FEBFFFF7FEBFFFF7FEBFE9
:101B3000FFF7FEBFFFF7FEBFFFF7FEBFFFF7FEBFD9
:101B4000FFF7FEBFFFF7FEBFFFF7FEBFFFF7FEBFC9
:101B5000FFF7FEBFFFF7FEBFFFF7FEBFFFF7FEBFB9
:101B6000FFF7FEBFFFF7FEBFFFF7FEBFFFF7FEBFA9
:101B7000FFF7FEBFFFF7FEBFFFF7FEBFFFF7FEBF99
:101B8000FFF7FEBFFFF7FEBFFFF7FEBFFFF7FEBF89
:101B9000FFF7FEBFFFF7FEBFFFF7FEBFFFF7FEBF79
:101BA000FFF7FEBFFFF7FEBFFFF7FEBFFFF7FEBF69
:101BB000FFF7FEBFFFF7FEBFFFF7FEBFFFF7FEBF59
:101BC000FFF7FEBFFFF7FEBFFFF7FEBFFFF7FEBF49
:101BD000FFF7FEBFFFF7FEBFFFF7FEBFFFF7FEBF39
:101BE000FFF7FEBFFFF7FEBFFFF7FEBFFFF7FEBF29
:101BF000FFF7FEBFFFF7FEBFFFF7FEBFFFF7FEBF19
:101C0000FFF7FEBFFFF7FEBFFFF7FEBFFFF7FEBF08
:101C1000FFF7FEBFFFF7FEBFFFF7FEBFFFF7FEBFF8
:101C2000FFF7FEBFFFF7FEBFFFF7FEBFFFF7FEBFE8
:101C3000FFF7FEBFFFF7FEBFFFF7FEBFFFF7FEBFD8
:101C4000FFF7FEBFFFF7FEBFFFF7FEBFFFF7FEBFC8
:101C5000FFF7FEBFFFF7FEBFFFF7FEBFFFF7FEBFB8
:101C6000FFF7FEBFFFF7FEBFF232000113202A018B
:101C70001021554152545F54776F426F6172647303
:101C800020636F6D6D756E69636174696F6E20623C
:101C90006173656420092001444D412DF2552033C4
:101CA000F28E00013001180240045002000240018F
:091CB000AC221008000124F4002C
:0400000508001AF9DC
:00000001FF
